:020000040800F2
:10000000702D002015020008C9050008150700081A
:100010001D070008250700082D0700080000000044
:10002000000000000000000000000000350700088C
:100030003D07000800000000450700084D070008C4
:100040002F0200082F0200082F0200082F020008CC
:100050002F0200082F0200082F0200085107000895
:1000600053070008550700082F0200082F02000858
:100070002F0200082F0200082F0200082F0200089C
:100080002F0200082F0200082F0200082F0200088C
:100090002F0200082F0200082F0200084F07000857
:1000A0002F0200082F0200082F0200082F0200086C
:1000B0007F06000899060008AF0600082F02000816
:1000C0002F0200082F0200082F0200082F0200084C
:1000D0002F020008D1050008F50500082F020008CE
:1000E0002F0200082F0200082F0200082F0200082C
:1000F0002F0200082F0200082F0200082F0200081C
:100100002F0200082F0200082F0200082F0200080B
:100110002F0600082F0200082F0200082F020008F7
:100120002F0200082F0200082F0200082F020008EB
:1001300000F002F800F05FF80AA090E8000C82449A
:100140008344AAF10107DA4501D100F054F8AFF277
:10015000090EBAE80F0013F0010F18BFFB1A43F0A5
:1001600001031847D4C60000F4C600000A444FF04B
:10017000000C10F8013B13F0070408BF10F8014B06
:100180001D1108BF10F8015B641E05D010F8016B4B
:10019000641E01F8016BF9D113F0080F1EBF10F8AF
:1001A000014BAD1C0C1B09D16D1E58BF01F801CBD2
:1001B000FAD505E014F8016B01F8016B6D1EF9D555
:1001C0009142D6D37047000000230024002500266A
:1001D000103A28BF78C1FBD8520728BF30C148BFAA
:1001E0000B60704773290BF0B480002070471FB577
:1001F0001FBD10B510BD0BF00DF91146FFF7F7FF4D
:1002000000F05CF80BF02BF903B4FFF7F2FF03BC2E
:100210000BF0F2F80948804709480047FEE7FEE77F
:10022000FEE7FEE7FEE7FEE7FEE7FEE7FEE7FEE7A6
:1002300004480549054A064B7047000015A100080F
:100240003101000870270020702D00207029002047
:100250007029002010B509F05DFF0121042007F08E
:1002600005FD0121082007F001FD0121102007F004
:10027000FDFC0121084607F006FD0121042007F0DE
:1002800002FD0121880307F0F1FC0121480407F079
:10029000FAFC0121C80407F0F6FC0121084607F02A
:1002A000D8FC0121480207F0E1FC0121880307F096
:1002B000EAFC0121084607F0D9FC10BD08B5FFF79C
:1002C000C9FF00F0AFF801F032FA1E48007A009042
:1002D0001C4843680178002210460AF089FC0AF0A5
:1002E000E5FC01F069FE02F093FD04F001F904F071
:1002F00013F906F01BFC04F09DFB06F049FC04F02A
:1003000033FB03F0B9FF06F0B2FC02F016FE02F078
:100310002BFC02F01AFC06F05BFF06F0ADFF0A486A
:1003200006F016FD01F00AFE02F05FF908E00AF09F
:10033000E2FC064801F01FFA04F055FB00F055FE00
:10034000F5E70000540300202406002024000020CC
:1003500010B507F01DFB4FF4803007F039FB07F0B4
:1003600076FB012820D1002007F0B7FB002007F022
:10037000C6FB4FF4806007F0B9FB4FF4E0114FF477
:10038000803007F08DFB012007F096FB00BF39207D
:1003900007F041FB0028FAD0022007F090FB00BFD5
:1003A00007F096FB0828FBD110BD012080F31388CD
:1003B00000BF00BF8048006800F4E0607F49084348
:1003C000001D7D490860BFF34F8F00BF00BFFEE7EF
:1003D00030B502464FF6FF7001B9012111E01478E3
:1003E000604000230AE000F0010424B140104AF20A
:1003F0000104604000E040105C1CE3B2082BF2DB1B
:10040000521C0C1EA1F10101E9D130BD01460020B2
:1004100005E06B4A0244D2F8E8270A54401C0C2835
:10042000F7D3704700B56748FFF7F0FF0C21654828
:10043000FFF7CEFF634908820846008A001208735E
:100440000846017C41730178817300BD10B50446F4
:1004500009F0BDF9352009F055FC204609F0FCF9FA
:1004600009F0C1F910BD2DE9F04107460D461446CB
:100470004FF000082046E11704EB91718910A4EBBE
:10048000810101F0FF08B8F1000F09D0B8F1010FA8
:1004900007D0B8F1020F07D0B8F1030F0AD106E078
:1004A00008E0E01C84B205E0A01C84B202E0601CFD
:1004B00084B200BF00BF2046E11704EB9171C1F385
:1004C0008F0409F084F9352009F01CFC384609F046
:1004D000C3F912E015F8016B15F8011B46EA012675
:1004E00015F8011B46EA014615F8011B46EA0166AC
:1004F0003146384609F080FA3F1D201EA4F1010163
:100500008CB2E7D1BDE8F08110B503E010F8013BF3
:1005100001F8013B131EA2F10104A2B2F6D110BDF5
:1005200000E0401E0028FCD1704701464FF0E02259
:10053000516100224FF0E0239A6101221A6100BF4D
:100540004FF0E022106900F001021AB100F480328D
:10055000002AF5D000224FF0E0231A619A6170471B
:1005600001464FF47A724A434FF0E0235A61002269
:100570009A6101221A6100BF4FF0E022106900F079
:1005800001021AB100F48032002AF5D000224FF0A7
:10059000E0231A619A61704710B50121042007F029
:1005A00007FC0121080707F06EFB012009F012FD8E
:1005B00009F02FFD10BD00000CED00E00000FA0571
:1005C00000F0FF1FA201002010B5FFF7EEFE10BDE6
:1005D00010B540F22551604808F0E8FC48B15E488B
:1005E00008F064FCC4B2EE23AA225521204600F094
:1005F000E8FB10BD10B540F22551584808F0D6FC74
:1006000030B10AF0B2FC40F22551544808F0F8FC31
:1006100040F22771514808F0C9FC012806D10AF0C0
:100620009FFC40F227714D4808F0EAFC10BD10B560
:1006300040F225514A4808F0B9FCF8B1484808F0A2
:1006400035FCC4B2EE23AA225521204600F0B9FBA6
:100650004448D0F80002B0F5007F0BDA4148D0F8EA
:100660000012D0F80002401C3E4AC2F800021046B8
:10067000445403E000203B49C1F8000210BD10B50E
:100680000121880708F0BDFA28B10AF0B7FC012162
:10069000880708F0C7FA10BD10B50121324808F0EC
:1006A000B0FA18B10121304808F0BCFA10BD10B5FD
:1006B00001212E4808F0A5FA58B301212B4808F073
:1006C000B1FA2B484088401C2949488004F055F96C
:1006D00028490871084600791F280AD00846807901
:1006E00070B908460068401C0860084600794871E7
:1006F00006E020480068322802D800201D49086022
:100700001C480068322804D901201A498871002049
:10071000086010BD01E0FFF748FEFCE701E0FFF7CD
:1007200044FEFCE701E0FFF740FEFCE701E0FFF7D5
:100730003CFEFCE710B5FFF738FE10BD10B5FFF723
:1007400034FE10BD10B5FFF730FE10BD7047704786
:100750007047704770470000003801400044004077
:10076000004C00401C040020000400400008004031
:100770000C000020580000207FB505460C46ADF85F
:100780000450ADF800400020ADF80200ADF80600BE
:1007900069464FF0804007F00FFC4FF4C06007F04F
:1007A000C9FA1C208DF80C0000208DF80D000120E6
:1007B0008DF80E008DF80F0003A807F0C0FA7FBD7A
:1007C0007FB505460C46ADF80450ADF8004000205A
:1007D000ADF80200ADF806006946594807F0ECFB99
:1007E0004FF4C06007F0A6FA1D208DF80C00002021
:1007F0008DF80D0002208DF80E0001208DF80F00FD
:1008000003A807F09CFA012211464D4807F04BFF60
:1008100001214B4807F02CFF7FBD7FB505460C46F4
:10082000ADF80450ADF800400020ADF80200ADF87E
:1008300006006946434807F0BFFB4FF4C06007F06D
:1008400079FA1E208DF80C0003208DF80D008DF82C
:100850000E0001208DF80F0003A807F070FA0122A6
:100860001146384807F01FFF0121364807F000FF06
:100870007FBD10B58CB034484088B0F5FA7F5DDBA1
:1008800000203149488008468088401C888000202C
:100890002E4948602E48007800284FD101F086FA92
:1008A0002C4802F0F6F82B4807C801F05EFC0E2237
:1008B000294968460AF08DFC1E222749103904A8F0
:1008C0000AF087FC04A80FC802F069FB002001F0C1
:1008D0003BFB044621490BF0FBFC214908600868FA
:1008E00001F0B5FC1B49087A01F0DFF81D4803C888
:1008F0001D4BCDE904010C330FCB8DE80F001A48D6
:100900000EC81A4801F01FFA19481A4B00901148F6
:1009100007C806F0AEFB06F0D6F901F060FF0E2224
:100920000D4968460AF055FC1E220B49103904A8EF
:100930000AF04FFC04A80FC802F031FB0CB010BD48
:1009400000040040000800400C000020C802002005
:1009500060000020C8030020F00300200000404099
:10096000280000207000002000040020B4010020B6
:10097000380600202406002030B503460020022956
:1009800017DB8D18072D14DC624D2D884C1B0DE0F4
:10099000614D35F814502D1203F8015B5E4D15F8CA
:1009A000145003F8015B641C551EAAB2002AEFDC48
:1009B00000E0012030BDF0B504460D460020022DB8
:1009C00034DBAE18862E31DC544E3688A91B13B1A9
:1009D000012B2AD111E00DE0514E36F8116036128C
:1009E00004F8016B4E4E16F8116004F8016B491CB7
:1009F000561EB2B2002AEFDC17E010E014F8017BBB
:100A00003E02474F27F8116014F8016B37F8117058
:100A10003E43434F27F81160491C561EB2B2002ACC
:100A2000ECDC01263F4F3E7000BF00E00120F0BD2E
:100A30002DE9F04705460E46904699464FF0000ACC
:100A40004446022E35DB06EB08000A2831DCB01ED6
:100A500087B2B9F1000F03D0B9F1010F28D113E02B
:100A60000FE0082C01DD082000E02046C2B2394624
:100A70002D4809F0C9FE05F8010B083C07F10800F4
:100A800087B2002CEDDC13E00FE015F8013B082CD9
:100A900001DD082000E02046C2B23946224809F0B4
:100AA0007FFE083C07F1080087B2002CEDDC00BF98
:100AB00001E04FF0010A5046BDE8F0872DE9F0470C
:100AC00005460C4616464FF0000937B2022C1CDBD7
:100AD000A0190A2819DCA01E1FFA80F812E0082FBE
:100AE00001DD082000E03846C2B241460F4809F057
:100AF0008BFE05F8010BA7F1080007B208F108000A
:100B00001FFA80F8002FEADC01E04FF001094846A7
:100B1000BDE8F08712000020B4010020140000207E
:100B2000BE01002024000020160000201700002035
:100B300008B54FF40070ADF8000003208DF80200F6
:100B400018208DF803006946FE4806F0D3FD4FF4E7
:100B50008060ADF8000004208DF803006946F94874
:100B600006F0C8FD0220ADF8000003208DF8020059
:100B700010208DF803006946F24806F0BBFD042002
:100B8000ADF8000003208DF8020018208DF8030056
:100B90006946EC4806F0AEFD0820ADF800000420E0
:100BA0008DF803006946E74806F0A4FD4020ADF843
:100BB000000003208DF8020010208DF80300694624
:100BC000E04806F097FD4021DE4806F042FE4FF473
:100BD0008060ADF8000003208DF8020018208DF829
:100BE00003006946D84806F085FD4FF40060ADF873
:100BF000000004208DF803006946D34806F07AFD12
:100C000008BD08B54FF4C06007F094F825208DF8B2
:100C1000000000208DF801008DF8020001208DF801
:100C20000300684607F08BF84FF4C06007F082F8C5
:100C300026208DF8000000208DF8010001208DF89D
:100C400002008DF80300684607F079F84FF4C060A1
:100C500007F070F834208DF8000000208DF80100B6
:100C600002208DF8020001208DF80300684607F08D
:100C700066F808BD2DE9FF4704460D4616461F4697
:100C8000DDE90C8900940020ADF80400ADF8060001
:100C9000ADF80870ADF80C000C20ADF80A006946FC
:100CA000AA4808F006F8012240F22551A74808F0AA
:100CB00098F80121A54808F088F84021A34808F0D9
:100CC0006CF900950020ADF80400ADF80600ADF811
:100CD0000880ADF80C000C20ADF80A0069469C486D
:100CE00007F0E7FF012240F22551994808F079F812
:100CF0000121974808F069F84021954808F04DF91E
:100D000000960020ADF80400ADF80600ADF808909C
:100D1000ADF80C000C20ADF80A0069468D4807F0CC
:100D2000C8FF012240F225518A4808F05AF80121F3
:100D3000884808F04AF84021864808F02EF9BDE8B6
:100D4000FF872DE9FC4704460D4616461F46DDE9A0
:100D50000A89FFF7EDFE3B46324629462046CDE99B
:100D60000089FFF787FFFFF74CFFBDE8FC8770B5F0
:100D700004460D462946204608F094F800BF40215D
:100D8000204608F0FDF80028F9D070BD70B5054682
:100D90000C4604E021782846FFF7E9FF641C207820
:100DA0000028F7D170BD10B502460B46107801211E
:100DB00004E0545C0444E0B24C1CE1B29942F8DB1C
:100DC00010BDF0B50446644E7668802E2ED2624E79
:100DD0003079254608363554461C5F4F7E60002525
:100DE00020B93E46367A8E4200D00125012804D132
:100DF000594E767A964200D00125012D02D1002667
:100E0000554F7E60022814DD534E7768B67AB7429C
:100E10000FD3461E504F0837BE5D9E4209D10026B3
:100E2000083F7E60012687F8886002E000264A4F6E
:100E30007E60F0BD2DE9F05F83460F46154698466B
:100E4000DDE90A9A002441465846FFF790FF04EB7B
:100E50000800C4B249465846FFF789FF04EB090071
:100E6000C4B2681DC1B25846FFF781FF681D204417
:100E7000C4B2002607E0B95D5846FFF778FFB85DB9
:100E80002044C4B2761CAE42F5D351465846FFF713
:100E90006EFF04EB0A00C4B221465846FFF767FF15
:100EA0000120BDE8F09F70B506460C4615460BE0E4
:100EB00000BF4021304608F063F80028F9D014F84C
:100EC000011B304607F0EEFF281EA5F101018DB28F
:100ED000EED100BF4021304608F052F80028F9D08A
:100EE00070BD70B504460D4616464021154806F003
:100EF000AEFC4FF4FA70FFF718FB32462946204645
:100F0000FFF7D1FF4FF4FA70FFF70FFB40210D48B8
:100F100006F09FFC70BD2DE9FF5F0F461646984610
:100F2000DDE90FABDDF83890002441460098FFF76B
:100F30001EFF04EB0800C4B249460098FFF717FFF4
:100F40000CE00000000801400010014000380140A2
:100F500000440040004C0040C802002004EB09009F
:100F6000C4B206F10A00C1B20098FFF700FF06F113
:100F70000A002044C4B206F10A00C0F30721009819
:100F8000FFF7F5FE06F10A0004EB2020C4B2594633
:100F90000098FFF7ECFE04EB0B00C4B2002509E05B
:100FA000D248415D0098FFF7E2FED048405D204402
:100FB000C4B26D1C032DF3D3002507E0795D0098C2
:100FC000FFF7D5FE785D2044C4B26D1CB542F5D361
:100FD00051460098FFF7CBFE04EB0A00C4B221464D
:100FE0000098FFF7C4FEBDE8FF9FF0B589B000246C
:100FF00000250026BE4890F88800012878D10020FE
:10100000BB4981F888000846C07A312856D006DCF2
:10101000112809D012286CD0132821D112E13328CD
:101020001FD07128F9D183E011208DF81000AF484E
:101030000C38007B8DF81100AC480C38407B8DF8E3
:101040001200AA480C38807B8DF81300EE20AA21EC
:1010500055230422CDE9001004A9A648FFF7EAFEB3
:1010600040E1A348007BA1490C39097B884224D187
:101070009F48417B9D480C38407B814201D1012033
:1010800000E000209A498A7B98490C39897B8A4282
:1010900001D1012100E00021084070B1964840686C
:1010A0009649081A022808D30120954908709248E9
:1010B0001422C168924806F05CFA13E18C48007B68
:1010C0008A490C39097B884231D18948417B87485C
:1010D0000C38407B814201D1012000E0002084498E
:1010E0008A7B82490C39897B8A4203D1012102E043
:1010F000F9E05AE000210840C8B107227C48407D51
:101100007B49097D7A4FCDE90102009197F810C023
:10111000FF7B4CEA0727A7F5FA67F8B2744FFB7C10
:10112000BA7C797C01F018FC764801F0B2FCD9E079
:101130006F48007B6D490C39097B884234D16C487B
:10114000417B6A480C38407B814201D1012000E09C
:10115000002067498A7B65490C39897B8A4201D125
:10116000012100E000210840F0B1634805F00EFEC7
:1011700071208DF810005D480C38007B8DF811004F
:101180005A480C38407B8DF8120058480C38807B48
:101190008DF81300EE20AA2155230422CDE900107A
:1011A00004A95448FFF746FE9CE05148007B4F4994
:1011B0000C39097B884244D14D48417B4B480C385F
:1011C000407B814201D1012000E0002048498A7B18
:1011D00046490C39897B8A4201D1012100E0002176
:1011E000084070B312208DF8100040480C38007B86
:1011F0008DF811003D480C38407B8DF812003B48BB
:101200000C38807B8DF813003B484068000E8DF849
:10121000140039484068000C8DF815003648808865
:10122000000A8DF81600344800798DF81700EE207A
:10123000AA2155230822CDE9001004A92D48FFF763
:10124000F9FD4FE02A48007B28490C39097B884288
:1012500047D12748417B25480C38407B814201D14A
:10126000012000E0002022498A7B20490C39897B3B
:101270008A4201D1012100E00021084088B31C48C6
:10128000C07B01061A48007C41EA00411848407CB6
:1012900041EA00201649897C40EA01051448C07CD7
:1012A00001061348007D41EA00411148407D41EAB2
:1012B00000200F49897D40EA010633462A4612493B
:1012C0000D4805F074FD04465CB11320EE21BB22ED
:1012D0005523CDE90021029022460B490548FFF72E
:1012E0001AFE00BF00BF09B0F0BD0000AE01002033
:1012F000C802002000380140240600207F1A0600A2
:1013000038060020C80300204C06002010B5C4B0E9
:1013100000244FF4867201A9FE48FFF7F5F89DF806
:101320000400552812D19DF80500AA280ED19DF879
:10133000060055280AD19DF80700AA2806D14FF4C7
:10134000847202A9F44809F044FF32E00120F24916
:1013500008800320488000208880C8800120088100
:1013600000204881012088810020C8810882002453
:1013700006E00021E84A04F1090022F81010641C7C
:101380000A2CF6DB002407E04FF47A71E24A04F1FC
:10139000640022F81010A41C0A2CF5DB002406E0DF
:1013A0000021DD4A04F1650022F81010A41C0A2C6B
:1013B000F6DB44B010BD0146B1F5964F1FD00CDCF2
:1013C000B1F5966F13D0B1F5166F12D0B1F5965FE7
:1013D00011D0B1F5165F1AD10FE0B1F5164F10D04C
:1013E000B1F5614F0FD0B1F5E13F10D10DE0002014
:1013F00070470120FCE70220FAE70320F8E7042009
:10140000F6E70520F4E70620F2E70720F0E70320DF
:10141000EEE7014621B1012904D0022906D103E0FB
:10142000002070470120FCE70220FAE70020F8E7DF
:101430002DE9F05F81460C464FF0000AB9F8000034
:10144000002807DDB9F80000FF2803DAB9F800002A
:10145000208002E02088A9F80000B9F802000828DE
:1014600025D2DFE800F004080C1014181C204FF4FB
:101470009660606021E04FF4166060601DE04FF4FC
:101480009650606019E04FF41650606015E04FF41C
:101490009640606011E04FF4164060600DE04FF43C
:1014A0006140606009E04FF4E130606005E0606831
:1014B000FFF781FFA9F8020000BF00BFB9F80400E0
:1014C00020B1012805D0022809D105E000202072B2
:1014D0000BE00120207208E00220207205E0207A53
:1014E000FFF797FFA9F8040000BF00BFB9F8060096
:1014F00020B1012805D0022809D105E00020608133
:1015000009E00120608106E00220608103E060893B
:10151000A9F8060000BF00BFB9F8080020B10128F3
:1015200005D0022809D105E00020A08109E00120B2
:10153000A08106E00220A08103E0A089A9F80800AC
:1015400000BF00BFB9F80A00E081B9F80C0010B183
:10155000012806D102E00020208206E0012020823E
:1015600003E0208AA9F80C0000BF00BFB9F80E0004
:1015700010B1012806D102E00020608206E00120BF
:10158000608203E0608AA9F80E0000BF00BFB9F8CE
:10159000100010B1012806D102E00020A08206E070
:1015A0000120A08203E0A08AA9F8100000BF00BFBC
:1015B0004FF0000A17E00AF1090139F8111008B2DA
:1015C0000AF026FE83460AF057FC07460022534BDA
:1015D0000AF070F8054609F087FF04F1180141F898
:1015E0002A000AF1010ABAF1040FE4DB4FF0000A05
:1015F00017E00AF10D0139F8111008B20AF008FEDF
:1016000083460AF039FC07460022444B0AF052F8A0
:10161000054609F069FF04F1280141F82A000AF1A2
:10162000010ABAF1040FE4DB4FF0000A17E00AF1F7
:10163000110139F8111008B20AF0EAFD83460AF0E8
:101640001BFC07460022354B0AF034F8054609F02A
:101650004BFF04F1380141F82A000AF1010ABAF1FE
:10166000020FE4DB4FF0000A17E00AF1640139F8D9
:10167000111008B20AF0CCFD83460AF0FDFB0746C4
:101680000022274B0AF016F8054609F02DFF04F159
:10169000400141F82A000AF1010ABAF1040FE4DB23
:1016A0004FF0000A17E00AF1680139F8111008B28A
:1016B0000AF0AEFD83460AF0DFFB07460022184B16
:1016C00009F0F8FF054609F00FFF04F1500141F859
:1016D0002A000AF1010ABAF1040FE4DB4FF0000A14
:1016E00017E00AF16C0139F8111008B20AF090FD08
:1016F00083460AF0C1FB07460022094B09F0DAFFD6
:10170000054609F0F1FE04F1600141F82A000AF1F2
:10171000010A07E000000108BE010020000024408B
:1017200000408F40BAF1020FDBDBBDE8F09F10B53F
:10173000FFF7ECFDF749F848FFF77AFE10BD00B55A
:10174000C3B04FF4847101A809F0AAFDF348006802
:101750000090F049F048FFF76BFE4FF48472EE49B9
:1017600001A809F036FD4FF486726946EC48FEF791
:101770007AFE43B000BD10B50446207810B10128B0
:101780000AD104E005F0DEF9FFF773F805E0FFF792
:10179000D6FFFEF70AFE00E000BF00BF0020207069
:1017A00010BD2DE9F04105460E460024002700BF7C
:1017B00006E055F8241038460AF08AFB0746641CF8
:1017C00020460AF025FD804631460AF04DFDF0D353
:1017D000314638460AF0EAFBBDE8F08170B50446B0
:1017E0000D461646012C04D0022C6ED0032C6DD170
:1017F00019E1C848816928460AF036FE1DD2C5495C
:10180000886900210AF094FC17D04FF49671642087
:1018100000F0BAFB4FF48070C2490861012108460C
:1018200001F0C8FB0121084601F0F0FBB949887AB4
:101830000222012101F0B4FA27E0B648C169284626
:101840000AF012FD1DD2B349C86900210AF070FCEC
:1018500017D04FF49671642000F096FB4FF480701F
:10186000B04908610121084601F0A4FB02210120D2
:1018700001F0CCFBA749887A0122022101F090FAFD
:1018800003E04FF48070A7494861A248016A3046DE
:101890000AF0EAFD1BD29F49086A00210AF048FCC1
:1018A00015D04FF49671642000F06EFB01210220E8
:1018B00001F080FB0121022001F0A8FB9549887A04
:1018C0000222012101F06CFA20E020E0EAE09148D8
:1018D000416A30460AF0C8FC18D28E49486A002195
:1018E0000AF026FC12D04FF49671642000F04CFBF5
:1018F0000121022001F05EFB0221084601F086FB77
:101900008449887A0122022101F04AFACBE0814819
:10191000816A28460AF0A8FD1DD27E49886A002106
:101920000AF006FC17D04FF49671642000F02CFBEF
:101930004FF480707B4908610121084601F03AFBB1
:101940000121084601F062FB7249887A02220121D6
:1019500001F026FA27E06F48C16A28460AF084FCA5
:101960001DD26C49C86A00210AF0E2FB17D04FF47F
:101970009671642000F008FB4FF48070694948615B
:101980000121084601F016FB0221012001F03EFB77
:101990006049887A0122022101F002FA03E04FF443
:1019A0008070604948615B48016B30460AF05CFD1D
:1019B00019D25849086B00210AF0BAFB13D04FF432
:1019C0009671642000F0E0FA0121022001F0F2FAA1
:1019D0000121022001F01AFB4E49887A02220121DE
:1019E00001F0DEF91EE04B48416B30460AF03CFC4A
:1019F00018D24849486B00210AF09AFB12D04FF4E4
:101A00009671642000F0C0FA0121022001F0D2FAA0
:101A10000221084601F0FAFA3E49887A01220221A1
:101A200001F0BEF93FE03B48816B28460AF01CFDFF
:101A300018D23849886B00210AF07AFB12D04FF493
:101A40009671642000F0A0FA0121084601F0B2FA74
:101A50000121084601F0DAFA2E49887A0222012192
:101A600001F09EF92B48C16B28460AF0FDFB18D205
:101A70002849C86B00210AF05BFB12D04FF4967125
:101A8000642000F081FA0121084601F093FA022156
:101A9000012001F0BBFA1F49887A0122022101F0DE
:101AA0007FF900E000BF00BF70BD2DE9FC47824612
:101AB00005209AFBF0F100FB11A0D0B91A4800787C
:101AC000401C194908700021012001F073FA00211F
:101AD000022001F06FFA0021012001F097FA0021A5
:101AE000022001F093FA0B49887A0022114601F096
:101AF00057F90D48007820B101285DD002287CD12B
:101B0000ABE00448008A88B907480078401C0649C1
:101B1000087050E054030020BE010020B8C5000842
:101B2000000001080010014018000020012002F010
:101B3000B3FE0121032000F004FEB4498868B449D3
:101B40000AF092FB05D3B1498868B2490AF08CFCCF
:101B500009D2032000F06AFC002001F021FB0020E4
:101B600001F028FB26E0AC4A116CA84A90680AF004
:101B7000AFFB0446A848416C20460AF0A9F9A349E6
:101B80008860A54A916CA14A10680AF0A1FB04463E
:101B9000A148C16C20460AF09BF99C4908600A469E
:101BA0001168906800F020FA984802688168012066
:101BB000FFF714FEC4E000BF9748408A28B9974851
:101BC0000078401C9549087046E0022002F064FE4F
:101BD0000221032000F0B5FD8C49C8688C490AF049
:101BE00043FB05D38949C8688A490AF03DFC0BD2FA
:101BF000032000F01BFC002000E09DE001F0D0FA83
:101C0000002001F0D7FA26E0834A116D7F4AD068A0
:101C10000AF05EFB04468048416D20460AF058F900
:101C20007A49C8607C4A916D784A50680AF050FB46
:101C300004467948C16D20460AF04AF97349486064
:101C40000A465168D06800F0CFF970484268C16810
:101C50000220FFF7C3FD73E000BF6F48808A28B9F8
:101C60006E480078401C6D49087064E00321012033
:101C700000F067FD6A49D1E900410022694B204626
:101C800009F0A0FE08D366480022674BD0E9004166
:101C9000204609F0D1FF09D2032000F0C7FB002045
:101CA00001F07EFA002001F085FA31E05A49486ED1
:101CB0000AF0E2F8804689465749086E0AF0DCF8D7
:101CC00004465748D0E900633246204609F0B6FE84
:101CD00042464B46CDE9000109F038FC504A03C2A8
:101CE0004F48D0E90021104609F0FEFB0446474862
:101CF0004168204600F078F94948D0E900211046B3
:101D000009F0F2FB0446002221460320FFF766FD9E
:101D1000112001F052FC112001F091FC112001F082
:101D2000D0FC002001F046FA112001F00CFD00204B
:101D300001F0DFF904E000BF00203849087000BF5F
:101D400000BFBDE8FC870FB42DE9F04104463749D8
:101D500009980AF0BDFA05460AF01EFA20803349B8
:101D600007980AF0B5FA05460AF016FA60802F497E
:101D70000A980AF0ADFA05460AF00EFAA0802B493F
:101D800008980AF0A5FA05460AF006FAE080002253
:101D9000274BDDE90E51284609F050FE074609F0B1
:101DA000E1FD2081BDE8F0015DF814FB10B51A4893
:101DB000C08950B31F480068401C1E49086016487F
:101DC000C089C0EB00100968B1EB800F1DDD002059
:101DD000184908604FF47A70FEF7C2FB4FF47A702E
:101DE000FEF7BEFB4FF47A70FEF7BAFB01F0D1F8B4
:101DF0000023642210A111A004F0FDFE00214FF485
:101E0000FE7005F04DFFFEF7C7FB10BD000400207B
:101E1000000048C2000016435403002018000020B0
:101E200070000020000049C000C062400000204156
:101E3000000024401C0000204F4B000041542B4761
:101E4000534C503D3100000000B58BB04A4807F0BC
:101E50007DFF4A4800904A480190002002900220ED
:101E600003900020049080200590400006908000A0
:101E70000790202008900002099000200A906946EF
:101E80003D4808F005F801213B4808F02CF80BB05C
:101E900000BD00B587B08020ADF8180003208DF894
:101EA0001A0000208DF81B0006A9364805F022FC18
:101EB000FFF7CAFF0020019001208DF808004FF4C1
:101EC000602003900020049001208DF8140001A9E7
:101ED0002A484C3807F0D5F84FF4004005F02AFEA8
:101EE00005230122072125484C3807F062F901211A
:101EF00022484C3807F0FCF8012120484C3807F004
:101F0000ECF81E484C3807F00AF900BF1B484C3863
:101F100007F00AF90028F9D118484C3807F00EF9F3
:101F200000BF16484C3807F00EF90028F9D10121FE
:101F300012484C3807F011F907B000BD10B5FFF793
:101F400083FFFFF7A6FF10BD70B5054600260024ED
:101F500007E00B4800EB440030F815000644601C15
:101F6000C4B2022CF5DB710840F6E4425143080B81
:101F70000AF066F970BD0000080002404C240140E0
:101F80002C0000200008014070B504460D460026D4
:101F900000BF0EE04FF40050124908612846FEF7DA
:101FA000C4FA4FF400500F4948612846FEF7BDFAC5
:101FB000761CA642EEDB70BD08B54FF40050ADF8BC
:101FC000000003208DF8020010208DF80300694600
:101FD000044805F08FFB4FF496716420FFF7D4FF9F
:101FE00008BD0000001001402DE9FF5F83460F4649
:101FF000FD4958460AF06CF9019009F03DFF21F0C7
:102000000041CDE9020109F0ADFC0546F64938462C
:102010000AF05EF9019009F02FFF21F00041CDE9AF
:10202000020109F09FFC0646584609F025FF0022F0
:102030001346CDE9020109F0C5FC04D2012108468E
:1020400000F0CEFF03E00021012000F0C9FF4FF4B3
:102050007A7095FBF0F0C4B204B910244FF47A7092
:1020600095FBF0F100FB1150642190FBF1F000F0C2
:10207000FF0A4FF47A7095FBF0F100FB11506421D8
:1020800090FBF1F201FB12000A2190FBF1F000F04D
:10209000FF094FF47A7095FBF0F100FB11506421B9
:1020A00090FBF1F201FB12000A2190FBF1F201FB1F
:1020B000120000F0FF08204601F072F9504601F0CE
:1020C000B1F9484601F0F0F9012001F069F8404605
:1020D00001F02CFA032000F0BEFF4FF47A7096FB5B
:1020E000F0F0C4B204B910244FF47A7096FBF0F10A
:1020F00000FB1160642190FBF1F000F0FF0A4FF447
:102100007A7096FBF0F100FB1160642190FBF1F214
:1021100001FB12000A2190FBF1F000F0FF094FF4DF
:102120007A7096FBF0F100FB1160642190FBF1F2F4
:1021300001FB12000A2190FBF1F201FB120000F0FA
:10214000FF08204601F039FA504601F078FA484677
:1021500001F0B7FA012001F02DF8404601F0F3FA42
:10216000012000F0C6FFBDE8FF9F37B5012001F058
:10217000FFFE012001F006FF012002F075F89DF836
:1021800004000A2190FBF1F0C4B2204601F0C3FE26
:102190009DF804000A2190FBF1F201FB1200C4B289
:1021A000204601F0EDFD9DF805000A2190FBF1F0BD
:1021B000C4B2204601F02BFE9DF805000A2190FBD9
:1021C000F1F201FB1200C4B2204601F062FE9DF85C
:1021D00006000A2190FBF1F0C4B2204601F0F5FAA6
:1021E0009DF806000A2190FBF1F201FB1200C4B237
:1021F000204601F02CFB9DF807000A2190FBF1F02E
:10220000C4B2204601F065FB9DF807000A2190FB4F
:10221000F1F201FB1200C4B2204601F09CFB9DF8D4
:1022200008000A2190FBF1F0C4B2204601F05EFCE8
:102230009DF808000A2190FBF1F201FB1200C4B2E4
:10224000204601F095FC032001F0ECFF3EBD2DE996
:10225000F0470446204609F00FFE07460022634B74
:1022600009F028FA054609F03FF98146484609F089
:1022700003FE05465E4A5F4B09F0DEFC01D8DFF83D
:102280007891484609F0F8FD05464FF066325B4B01
:1022900009F098FB01D8DFF868911021594805F042
:1022A000BCFA80B958480078052802DD022056495A
:1022B00008705548007801F035FF53480078401CFD
:1022C0005149087067E0484609F0D6FD05464FF0D1
:1022D00066324A4B09F076FB1BD84FF47A70FEF752
:1022E0003FF94FF47A70FEF73BF94FF47A70FEF73E
:1022F00037F900F04EFE0023642244A144A004F00C
:102300007AFC00214FF4FE7005F0CAFCFEF744F998
:1023100041E0484609F0B0FD05464FF033323F4BEF
:1023200009F050FB03D8012001F0FCFE33E04846E1
:1023300009F0A2FD05462E4A394B09F043FB03D8AC
:10234000022001F0EFFE26E0484609F095FD054623
:102350004FF06632334B09F035FB03D8032001F010
:10236000E1FE18E0484609F087FD054600222E4BA5
:1023700009F028FB03D8042001F0D4FE0BE0484606
:1023800009F07AFD05461A4A1A4B09F01BFB02D8E0
:10239000052001F0C7FEBDE8F08770B504460120B6
:1023A00001F004FE642094FBF0F0C5B2284601F071
:1023B00021FC642094FBF0F100FB11400A2190FB0A
:1023C000F1F0C5B2284601F057FC642094FBF0F10F
:1023D00000FB11400A2190FBF1F201FB1200C5B293
:1023E000284601F08BFC70BD0000204100408F406A
:1023F000CDCCCCCCCCCC10406666864066660A401C
:102400003333534000100140300000204F4B000098
:1024100041542B47534C503D3100000033330B40A7
:10242000CCCC0C4066660E400000104010B504464F
:10243000032C00DD0024112000F0B2FF112000F079
:10244000F1FF112001F030F8112001F06FF8112098
:1024500001F0B3F8112001F0F2F8112001F031F988
:10246000112001F070F934B1012C2ED0022C5AD079
:10247000032C29D185E0EB48007D20F00200E949DA
:1024800008750846807D20F0020088750846407E69
:1024900020F0020048760846C07E20F00200C87690
:1024A0000846007D20F0200008750846807D20F059
:1024B000200088750846407E20F0200048760846B7
:1024C000C07E20F02000C8768DE0D648007D20F048
:1024D0000200801CD34908750846807D20F0020068
:1024E000801C88750846407E20F00200801C4876DB
:1024F0000846C07E20F00200801CC8760846007D99
:1025000020F0200008750846807D20F020008875A6
:102510000846407E20F0200048760846C07E20F025
:102520002000C8765FE0BF48007D20F00200BD4972
:1025300008750846807D20F0020088750846407EB8
:1025400020F0020048760846C07E20F00200C876DF
:102550000846007D20F02000203008750846807D68
:1025600020F02000203088750846407E20F02000B2
:10257000203048760846C07E20F020002030C87603
:1025800031E0A848007D20F00200801CA5490875B4
:102590000846807D20F00200801C88750846407E39
:1025A00020F00200801C48760846C07E20F0020021
:1025B000801CC8760846007D20F020002030087579
:1025C0000846807D20F02000203088750846407E37
:1025D00020F02000203048760846C07E20F0200001
:1025E0002030C87600BF00BF10BD2DE9F05F8E48D7
:1025F00000F04FFA8C4807C8FFF7B7FD0320FFF73C
:1026000015FF0020894988600860C8604860002183
:10261000874A116051608748008A01281DD102F065
:102620003BF9844A116C814A906809F051FE0446D6
:102630008048416C204609F04BFC7C4988607D4A0B
:10264000916C7A4A106809F043FE04467948C16CDF
:10265000204609F03DFC754908607648408A01280B
:102660001ED1022002F018F9724A116D6F4AD0682B
:1026700009F02EFE04466F48416D204609F028FC03
:102680006A49C8606B4A916D684A506809F020FE3B
:1026900004466848C16D204609F01AFC6349486049
:1026A0006448808A012818D16249486E09F0E4FB29
:1026B00004460D465F49086E09F0DEFB80465C4823
:1026C000D0E900633246404609F0B8F98246224616
:1026D0002B4608F03BFF564A03C20020FFF734FCAC
:1026E0000446554909F0F4FD544908600868FFF7AD
:1026F000AEFD50490878FFF750FEBDE8F09F70B579
:102700000446632C13DC012001F046FC0A2094FBF4
:10271000F0F0C5B2284601F065F90A2094FBF0F10B
:1027200000FB1140C5B2284601F09EF908E00020E8
:1027300001F032FC102001F055F9102001F094F95D
:1027400070BD70B505460C46012D04D0022D09D090
:10275000032D15D10DE0204600F09EFD112000F064
:10276000DDFD0DE0112000F097FD204600F0D6FDC4
:1027700006E0204600F090FD204600F0CFFD00BFAF
:1027800000BF70BD00B58DB02D480068401C2C49BD
:1027900008600846006832281FDD002008602949CB
:1027A000087801F08AFC0E221E491031684608F0B4
:1027B00010FD1E221B4905A808F00BFD05A80FC837
:1027C00000F0EDFB1F480068401C1E4908600846E9
:1027D0000068052801DD012008600DB000BD10B5BE
:1027E000194840681949081A022803D201201849DB
:1027F00008700FE0144840681449081AB0F57A7F51
:1028000005D213480078C0431149087002E0002047
:102810000F4908700E49097801F0010001F0D0FB62
:1028200010BD0000E0030020C803002000040020C9
:1028300070000020540300200000404028000020C9
:102840003400002038000020240600207F1A0600F3
:102850003C0000202DE9F04107460D4616460024B5
:1028600000F0B4F9D02000F040FA00F017FA384632
:1028700000F03BFA00F012FA00BF05E0285D00F01E
:1028800034FA00F00BFA641CB442F7DB00F0B8F93C
:10289000BDE8F0812DE9F04107460C4615460026BB
:1028A00000F094F9D02000F020FA00F0F7F9384653
:1028B00000F01BFA00F0F2F900F0A2F900F086F93E
:1028C000D12000F012FA00F0E9F900BF04E0012085
:1028D00000F038FAA055761C681EB042F7DC0020E4
:1028E00000F030FA691E605400F08AF9BDE8F0810A
:1028F00070B506460C4615469948C07966F38610B1
:102900009749C8710846C07964F34510C8710846F4
:10291000C07965F30400C8710122C91D0720FFF7C3
:1029200099FF70BD70B506460C4615468C48007A76
:1029300066F307108A4908720846007A64F3830038
:1029400008720846007A65F3010008720122083116
:102950000820FFF77FFF70BD2DE9F04704460D46C4
:1029600016461F46DDE9099ADDF820800A2099FB0A
:10297000F0F100FB11907A49097860F3030178487F
:1029800001700A2099FBF0F07549097860F306118F
:1029900073480170007820F08000714908700A20A7
:1029A00098FBF0F100FB11806D49497860F3030159
:1029B0006B4841700A2098FBF0F06949497860F350
:1029C0000611674841700A2097FBF0F100FB117077
:1029D0006349897860F30301614881700A2097FB9D
:1029E000F0F05F49897860F305115D488170807867
:1029F00020F040005A4988700846807820F0800016
:102A000088700846C0786AF30200C8700A2096FBF6
:102A1000F0F100FB11605249097960F3030150485D
:102A200001710A2096FBF0F04D49097960F3051118
:102A30004B4801710A2095FBF0F100FB1150484909
:102A4000497960F30301464841710A2095FBF0F093
:102A50004349497960F30411414841710A2094FBCC
:102A6000F0F100FB11403E49897960F303013C48D5
:102A700081710A2094FBF0F03949897960F30711DC
:102A800037488171082201460020FFF7E3FEBDE8C8
:102A9000F08710B50446082231490020FFF7FAFEFE
:102AA0002F48807900F00F002D498979090901EB41
:102AB000810100EB410000F5FA6020602848407970
:102AC00000F00F0026494979C1F3001101EB8101A3
:102AD00000EB410020712248007900F00F002049EE
:102AE0000979C1F3011101EB810100EB4100607133
:102AF0001B48807800F00F0019498978C1F3011153
:102B000001EB810100EB4100A0711548407800F015
:102B10000F0013494978C1F3021101EB810100EB69
:102B20004100E0710E48007800F00F000C49097870
:102B3000C1F3021101EB810100EB41002072084852
:102B4000C07800F00700607210BD10B502220121AC
:102B50000A20FFF7E7FE0348FFF79BFF10BD0000C8
:102B6000BC030020C803002008B5C020ADF8000059
:102B700003208DF8020010208DF803006946874875
:102B800004F0B8FD4021854804F061FE80218348AF
:102B900004F05DFE08BD08B58020ADF800000320FC
:102BA0008DF8020010208DF8030069467B4804F080
:102BB000A1FD08BD08B58020ADF8000048208DF8C3
:102BC00003006946754804F095FD08BD10B5FFF790
:102BD000E2FF8021714804F03AFE40216F4804F082
:102BE00036FE0320FDF7A1FC80216C4804F031FE85
:102BF0000320FDF79AFC4021684804F02AFE10BD2E
:102C000010B5FFF7C8FF4021644804F022FE802180
:102C1000624804F01EFE4021604804F018FE0320C4
:102C2000FDF783FC80215D4804F011FE0320FDF7D1
:102C30007CFC10BD10B54021584804F00AFEFFF797
:102C4000AAFF8021554804F004FE0320FDF76DFC27
:102C50004021524804F0FBFD0320FDF766FC4021B3
:102C60004E4804F0F6FD10BD10B540214B4804F06D
:102C7000F0FDFFF790FF8021484804F0E8FD0320B5
:102C8000FDF753FC4021454804F0E1FD0320FDF72A
:102C90004CFC4021414804F0DCFD10BD10B500247F
:102CA000FFF788FF80213D4804F0D1FD0320FDF7A8
:102CB0003CFC4021394804F0CAFD0320FDF735FCF7
:102CC00007E0601CC4B2FA2C03DDFFF799FF012076
:102CD00010BD8021314804F0A0FD0028F1D1402131
:102CE0002E4804F0B6FD0020F2E770B5044600253A
:102CF000FFF751FF4021294804F0ABFD00BF1EE063
:102D000004F08000002804DD8021244804F09FFDA9
:102D100003E08021214804F09CFD6006040E402160
:102D20001E4804F094FD0320FDF7FFFB40211B48E3
:102D300004F08FFD0320FDF7F8FB681CC5B2082DD9
:102D4000DEDB70BD70B5054600260024FFF732FFBC
:102D500000BF18E04021114804F07BFD0320FDF77F
:102D6000E4FB40210D4804F072FD6006040E802152
:102D70000A4804F052FD08B1601CC4B20320FDF7FC
:102D8000D4FB701CC6B2082EE4DB15B9FFF76CFF4C
:102D900001E0FFF74FFF204670BD0000000C01402E
:102DA00010B520B1012809D002282ED126E0012338
:102DB000F74C63615B02F74C236027E011B10129F6
:102DC0000BD104E04FF40073F24C236006E04FF4A3
:102DD0000073F04C241F236000E000BF00BF12B15D
:102DE000012A08D103E00123E94C636104E00123D7
:102DF000E74C236100E000BF00BF07E00123E44C83
:102E000023615B02E34C236000E000BF00BF10BD04
:102E100008B50120ADF8000003208DF80200102055
:102E20008DF803006946DA4804F064FC4FF4007042
:102E3000ADF8000003208DF8020010208DF803008B
:102E40006946D448143804F055FCD349887A0022E6
:102E50001146FFF7A5FF08BD70B505460C4601F009
:102E600042FA7C2001F0E2FA01F0B5FA284601F0BE
:102E7000DDFA01F0B0FA204601F0D8FA01F0ABFA21
:102E800001F04FFA70BD2DE9F04180460F4614461F
:102E90001D46002601F027FA7C2001F0C7FA01F058
:102EA0009AFA404601F0C2FA01F095FA384601F06C
:102EB000BDFA01F090FA01F034FA01F014FA7D2025
:102EC00001F0B4FA01F087FA00BF04E0012001F03C
:102ED000DFFAA055761C681EB042F7DC002001F036
:102EE000D7FA691E605401F01CFABDE8F0812DE9A3
:102EF000F04180460D4616461F46002401F0F3F9C6
:102F00007C2001F093FA01F066FA404601F08EFA57
:102F100001F061FA284601F089FA01F05CFA00BF7D
:102F200005E0305D01F082FA01F055FA641CBC4204
:102F3000F7DB01F0F6F9BDE8F08100B58DB00221B4
:102F40008220FFF789FF00218620FFF785FF3021CF
:102F50008A20FFF781FF00218820FFF77DFF0321F2
:102F60008420FFF779FF3421684608F099F933236C
:102F70006A4600218020FFF7BAFF1E21874808F02B
:102F80006DF91E23854A00218020FFF7B0FF0DB0A8
:102F900000BD10B500218420FFF75EFF10BD0FB407
:102FA00010B51E2302AA00218020FFF7A0FF10BC4D
:102FB0005DF814FB012802D002280ED106E0774A02
:102FC000D27C61F30002754BDA7407E0734AD27C5D
:102FD00061F30412714BDA7400E000BF00BF704768
:102FE000012802D002280ED106E06C4AD27C61F39F
:102FF000C3026A4BDA7407E0684AD27C61F3C712F5
:10300000664BDA7400E000BF00BF7047032900DDA3
:103010000021012802D002281AD10CE05F4AD27C9C
:1030200061F341025D4BDA744A08DB7C62F3820390
:103030005A4AD3740DE0594AD27C61F34512574B7A
:10304000DA744A08DB7C62F38613544AD37400E0D6
:1030500000BF00BF7047032800DD00204F49097FF3
:1030600060F3C3014D4A11774108527F61F3C712E3
:103070004A494A777047032800DD00204749497FC5
:1030800060F30001454A51774108527F61F34102E4
:1030900042494A777047032800DD00203F49497FB5
:1030A00060F3C3013D4A51774108527F61F38202C8
:1030B0003A494A777047012800DD00203749497FA7
:1030C00060F30411354A51777047012800DD002074
:1030D0003249497F60F34511304A517770470128E2
:1030E00000DD00202D49097F60F3C7112B4A1177BD
:1030F0007047012800DD00202849C97D60F3C30125
:10310000264AD1757047032800DD00202349497FF6
:1031100060F38611214A51774108127861F3C302A6
:103120001E490A707047032800DD00201B490978FA
:1031300060F3C711194A11704108127961F3000256
:1031400016490A717047032800DD00201349497CA5
:1031500060F3C711114A51744108927C61F3C712A0
:103160000E498A747047012800DD00200B49C97B95
:1031700060F3C711094AD1737047012800DD0020B0
:103180000649C97D60F3C711044AD1757047000034
:1031900000100140140C014054030020E003002003
:1031A000012800DD0020FE49897E60F3C301FC4A4E
:1031B00091767047012800DD0020F949897E60F38F
:1031C000C711F74A91767047012800DD0020F449C5
:1031D000497D60F3C711F24A51757047012800DD3F
:1031E000002010B101281AD10BE0ED49097E21F031
:1031F0000101EB4A11761146097E21F00401117696
:1032000019E0E749097E21F00101491CE44A1176E1
:103210001146097E21F00401091D11760BE0E049F9
:10322000097E21F00101DE4A11761146097E21F066
:103230000401117600BF00BF7047012800DD0020A7
:1032400010B101281AD10BE0D549097E21F01001F7
:10325000D34A11761146097E21F04001117619E01A
:10326000CF49097E21F010011031CD4A1176114667
:10327000097E21F04001403111760BE0C849097EFA
:1032800021F01001C64A11761146097E21F0400155
:10329000117600BF00BF70470F2800DD1020C14924
:1032A000095CBF4A127861F30002BD490A70BD494A
:1032B000095C4908BA4A127861F34102B8490A70B8
:1032C000B849095C8908B64A127861F38202B449A8
:1032D0000A70B449095CC908B14A527861F3C30263
:1032E000AF494A70AF49095C0909AD4A527861F3A8
:1032F0008202AB494A70AB49095C4909A84A527835
:1033000061F30002A6494A70A649095C8909A44AEA
:10331000527861F34102A2494A7070470F2800DDDC
:103320001020A049095C9E4A127861F304129C495E
:103330000A709C49095C4908994A127861F3451260
:1033400097490A709749095C8908954A127861F390
:10335000861293490A709349095CC908904A5278C9
:1033600061F3C7128E494A708E49095C09098C4A7B
:10337000527861F386128A494A708A49095C490980
:10338000874A527861F3041285494A708549095C7D
:103390008909834A527861F3451281494A7070471E
:1033A0000F2800DD10207F49095C7D4A527D61F3C2
:1033B00000027B494A757B49095C4908784A527D7D
:1033C00061F3410276494A757649095C8908744A75
:1033D000527D61F3820272494A757249095CC908DB
:1033E0006F4A127D61F3C3026D490A756D49095C2C
:1033F00009096B4A127D61F3820269490A756949BC
:10340000095C4909664A127D61F3000264490A7544
:103410006449095C8909624A127D61F3410260498D
:103420000A7570470F2800DD10205E49095C5C4A70
:10343000D27D61F300025A49CA755A49095C4908AC
:10344000574AD27D61F341025549CA755549095C15
:103450008908534AD27D61F382025149CA755149A4
:10346000095CC9084E4A927D61F3C3024C498A75D2
:103470004C49095C09094A4A927D61F38202484934
:103480008A754849095C4909454A927D61F3000201
:1034900043498A754349095C8909414A927D61F330
:1034A00041023F498A7570470F2800DD10203D49D1
:1034B000095C3B4A927E61F3000239498A763949B8
:1034C000095C4908364A927E61F3410234498A76A2
:1034D0003449095C8908324A927E61F3820230499C
:1034E0008A763049095CC9082D4A527E61F3C302CD
:1034F0002B494A762B49095C0909294A527E61F316
:10350000820227494A762749095C4909244A527EA2
:1035100061F3000222494A762249095C8909204A5E
:10352000527E61F341021E494A7670470F2800DD42
:1035300010201C49095C1A4A127F61F300021849E5
:103540000A771849095C4908154A127F61F341025C
:1035500013490A771349095C8908114A127F61F3FC
:1035600082020F490A770F49095CC9080C4AD27ECA
:1035700061F3C3020A49CA760A49095C0909084A83
:10358000D27E61F382020649CA760649095C49097E
:10359000034AD27E61F300020149CA76014903E081
:1035A000E00300203D000020095C8909FE4AD27E2C
:1035B00061F34102FC49CA7670470F2800DD1020F4
:1035C000FA49095CF84A527D61F30412F6494A75DA
:1035D000F649095C4908F44A527D61F34512F24903
:1035E0004A75F249095C8908EF4A527D61F38612F7
:1035F000ED494A75ED49095CC908EB4A127D61F352
:10360000C712E9490A75E949095C0909E64A127DC8
:1036100061F38612E4490A75E449095C4909E24A02
:10362000127D61F30412E0490A75E049095C8909D9
:10363000DD4A127D61F34512DB490A7570470F2898
:1036400000DD1020D949095CD74AD27D61F304120C
:10365000D549CA75D549095C4908D34AD27D61F379
:103660004512D149CA75D149095C8908CE4AD27D33
:1036700061F38612CC49CA75CC49095CC908CA4AAB
:10368000927D61F3C712C8498A75C849095C090966
:10369000C54A927D61F38612C3498A75C349095CA4
:1036A0004909C14A927D61F30412BF498A75BF4935
:1036B000095C8909BC4A927D61F34512BA498A7551
:1036C00070470F2800DD1020B849095CB64A927E89
:1036D00061F30412B4498A76B449095C4908B24AD4
:1036E000927E61F34512B0498A76B049095C890837
:1036F000AD4A927E61F38612AB498A76AB49095C8A
:10370000C908A94A527E61F3C712A7494A76A74958
:10371000095C0909A44A527E61F38612A2494A76DD
:10372000A249095C4909A04A527E61F304129E49EC
:103730004A769E49095C89099B4A527E61F345128B
:1037400099494A7670470F2800DD10209749095C97
:10375000954A127F61F3041293490A779349095CF1
:103760004908914A127F61F345128F490A778F49C0
:10377000095C89088C4A127F61F386128A490A77AC
:103780008A49095CC908884AD27E61F3C712864912
:10379000CA768649095C0909834AD27E61F386129A
:1037A0008149CA768149095C49097F4AD27E61F321
:1037B00004127D49CA767D49095C89097A4AD27E1C
:1037C00061F345127849CA7670470F2800DD102052
:1037D0007649095C744AD27B61F386127249CA73D6
:1037E0007249095C4908704AD27B61F304126E4940
:1037F000CA736E49095C89086B4AD27B61F3410246
:103800006949CA736949095CC908674AD27B61F38F
:1038100000026549CA736549095C0909624AD27B9D
:1038200061F382026049CA736049095C49095E4AD2
:10383000D27B61F345125C49CA735C49095C890912
:10384000594AD27B61F3C3025749CA7370470F28A4
:1038500000DD10205549095C534A127C61F3861241
:1038600051490A745149095C49084F4A127C61F375
:1038700004124D490A744D49095C89084A4A127C70
:1038800061F3410248490A744849095CC908464A3B
:10389000127C61F3000244490A744449095C090935
:1038A000414A127C61F382023F490A743F49095C34
:1038B00049093D4A127C61F345123B490A743B4970
:1038C000095C8909384A127C61F3C30236490A74DB
:1038D00070470F2800DD10203449095C324A527CC1
:1038E00061F3861230494A743049095C49082E4A0E
:1038F000527C61F304122C494A742C49095C8908F2
:10390000294A527C61F3410227494A742749095CDC
:10391000C908254A527C61F3000223494A742349AD
:10392000095C0909204A527C61F382021E494A74EB
:103930001E49095C49091C4A527C61F345121A4927
:103940004A741A49095C8909174A527C61F3C30217
:1039500015494A7470470F2800DD10201349095C8F
:10396000114A927C61F386120F498A740F49095CEF
:1039700049080D4A927C61F304120B498A740B4981
:10398000095C8908084A927C61F3410206498A74FD
:103990000649095CC908044A927C61F300020249A5
:1039A0008A740249095C03E0E00300203D00002026
:1039B0000909FE4A927C61F38202FC498A74FC493F
:1039C000095C4909F94A927C61F34512F7498A7406
:1039D000F749095C8909F54A927C61F3C302F3490E
:1039E0008A7470470F2800DD1020F149095CEF4A06
:1039F000927961F3C712ED498A71ED49095C490872
:103A0000EA4A927961F38612E8498A71E849095CC9
:103A10008908E64A927961F34512E4498A71E449DA
:103A2000095CC908E14A927961F30412DF498A719D
:103A3000DF49095C0909DD4A527961F30412DB4967
:103A40004A71DB49095C4909D84A527961F3861207
:103A5000D6494A71D649095C8909D44A527961F339
:103A60004512D2494A7170470F2800DD1020D04915
:103A7000095CCE4A127A61F3C712CC490A72CC496A
:103A8000095C4908C94A127A61F38612C7490A7269
:103A9000C749095C8908C54A127A61F34512C349CE
:103AA0000A72C349095CC908C04A127A61F3041258
:103AB000BE490A72BE49095C0909BC4AD27961F360
:103AC0000412BA49CA71BA49095C4909B74AD2799C
:103AD00061F38612B549CA71B549095C8909B34ACF
:103AE000D27961F34512B149CA7170470F2800DDE0
:103AF0001020AF49095CAD4A927A61F3C712AB4915
:103B00008A72AB49095C4908A84A927A61F3861225
:103B1000A6498A72A649095C8908A44A927A61F387
:103B20004512A2498A72A249095CC9089F4A927A41
:103B300061F304129D498A729D49095C09099B4AF7
:103B4000527A61F3041299494A729949095C490908
:103B5000964A527A61F3861294494A729449095CF2
:103B60008909924A527A61F3451290494A72704724
:103B70000F2800DD10208E49095C8C4A127B61F30E
:103B8000C7128A490A738A49095C4908874A127B25
:103B900061F3861285490A738549095C8908834A5D
:103BA000127B61F3451281490A738149095CC90896
:103BB0007E4A127B61F304127C490A737C49095CDA
:103BC00009097A4AD27A61F304127849CA727849AB
:103BD000095C4909754AD27A61F386127349CA723F
:103BE0007349095C8909714AD27A61F345126F49B8
:103BF000CA7270470F2800DD10206D49095C6B4ABE
:103C0000927961F3C30269498A716949095C49087B
:103C1000664A927961F3820264498A716449095C57
:103C20008908624A927961F3410260498A71604968
:103C3000095CC9085D4A927961F300025B498A71A7
:103C40005B49095C0909594A527961F341025749B4
:103C50004A715749095C4909544A527961F3C302D0
:103C600052494A715249095C8909504A527961F3B3
:103C700082024E494A7170470F2800DD10204C49DE
:103C8000095C4A4A127A61F3C30248490A724849F8
:103C9000095C4908454A127A61F3820243490A7273
:103CA0004349095C8908414A127A61F341023F495C
:103CB0000A723F49095CC9083C4A127A61F3000262
:103CC0003A490A723A49095C0909384AD27961F3DA
:103CD00041023649CA713649095C4909334AD279E9
:103CE00061F3C3023149CA713149095C89092F4A1C
:103CF000D27961F382022D49CA7170470F2800DD25
:103D000010202B49095C294A927A61F3C3022749A2
:103D10008A722749095C4908244A927A61F382022F
:103D200022498A722249095C8908204A927A61F301
:103D300041021E498A721E49095CC9081B4A927ACF
:103D400061F3000219498A721949095C0909174A85
:103D5000527A61F3410215494A721549095C4909D1
:103D6000124A527A61F3C30210494A721049095C3F
:103D700089090E4A527A61F382020C494A727047ED
:103D80000F2800DD10200A49095C084A127B61F304
:103D9000C30206490A730649095C4908034A127BB3
:103DA00061F3820201490A73014903E0E003002044
:103DB0003D000020095C8908FE4A127B61F3410244
:103DC000FC490A73FC49095CC908FA4A127B61F391
:103DD0000002F8490A73F849095C0909F54AD27AE0
:103DE00061F34102F349CA72F349095C4909F14A96
:103DF000D27A61F3C302EF49CA72EF49095C8909BB
:103E0000EC4AD27A61F38202EA49CA7270470F28FB
:103E100000DD1020E849095CE64A527B61F3861216
:103E2000E4494A73E449095C4908E24A527B61F378
:103E30000412E0494A73E049095C8908DD4A527B73
:103E400061F34102DB494A73DB49095CC908D94A7D
:103E5000527B61F30002D7494A73D749095C0909CB
:103E6000D44A527B61F38202D2494A73D249095C37
:103E70004909D04A527B61F34512CE494A73CE4973
:103E8000095C8909CB4A527B61F3C302C9494A7371
:103E900070470F2800DD1020C749095CC54A927B96
:103EA00061F38612C3498A73C349095C4908C14A50
:103EB000927B61F30412BF498A73BF49095C890888
:103EC000BC4A927B61F34102BA498A73BA49095CE0
:103ED000C908B84A927B61F30002B6498A73B649B1
:103EE000095C0909B34A927B61F38202B1498A7382
:103EF000B149095C4909AF4A927B61F34512AD496A
:103F00008A73AD49095C8909AA4A927B61F3C302AD
:103F1000A8498A73704710B101281BD10DE0A5494B
:103F2000497A21F00101491CA24A51721146C97A0D
:103F300021F00101491CD17218E09E49497A21F013
:103F400001019C4A51721146C97A21F00101491CB4
:103F5000D1720BE09749497A21F00101954A5172DB
:103F60001146C97A21F00101D17200BF00BF70472C
:103F7000012800DD00208F49497B60F3C7118D4A7D
:103F800051737047012800DD00208A49097C60F3E5
:103F9000C711884A11747047012800DD0020854947
:103FA000497960F3C711834A51717047012800DDD8
:103FB00000208049497960F300017E4A51717047C1
:103FC000012800DD00207B49C97960F3C711794AD7
:103FD000D1717047012800DD00207649C97960F36E
:103FE0000001744AD1717047012800DD0020714939
:103FF000C97860F386116F4AD1707047012800DDDF
:1040000000206C49C97860F3C7116A4AD1707047C3
:10401000012800DD00206749C97860F34511654A31
:10402000D1707047012800DD00206249C97860F333
:104030000411604AD1707047022800DD0020012879
:1040400002D0022826D112E05A49097921F0040150
:10405000091D584A11711146C97821F00401091D42
:10406000D1701146C97821F00801D17023E051497F
:10407000097921F00401091D4E4A11711146C978D0
:1040800021F00401D1701146C97821F008010831EE
:10409000D17010E04749097921F00401454A1171B6
:1040A0001146C97821F00401D1701146C97821F078
:1040B0000801D17000BF00BF70470CB53FA206CA0F
:1040C000CDE90012052800DD00201DF80010394A56
:1040D000127961F3C30237490A711DF800104908CB
:1040E000344A127961F3041232490A711DF8001042
:1040F0008908304A127961F345122E490A711DF878
:104100000010C9082B4A127961F3861229490A71F5
:104110001DF800100909274A127961F3C7122549D1
:104120000A710CBD0CB525A206CACDE900120528FE
:1041300000DD00201DF800101E4A927861F3410254
:104140001C498A701DF8001049081A4A127961F357
:10415000410218490A711DF800108908154AD278E1
:1041600061F341021349CA701DF80010C908114AD1
:10417000D27861F300020F49CA701DF800100909D6
:104180000C4A927861F300020A498A700CBD0CB5A2
:104190000CA206CACDE90012062800DD00201DF899
:1041A0000010044A927861F3820202498A701DF875
:1041B00000100BE0E00300203D0000200001030799
:1041C0000F1F0000000103070F1F3F004908284A86
:1041D000927861F3C30226498A701DF8001089089D
:1041E000234A927861F3041221498A701DF8001065
:1041F000C9081F4A927861F345121D498A701DF85B
:10420000001009091A4A927861F3861218498A70D7
:104210001DF800104909164A927861F3C712144933
:104220008A700CBD08B513A109680091032800DD50
:1042300000201DF800100E4A927B61F3C7120C4952
:104240008A731DF800104908094AD27A61F3C7122F
:104250000749CA721DF800108908054A527A61F3AD
:10426000C71203494A7208BD012800DD00207047CB
:10427000E00300200001020408B54FF44060ADF8EF
:10428000000003208DF8020010208DF8030069461D
:10429000964803F02FFA4FF48061944803F0D7FA60
:1042A0004FF40061914803F0D2FA08BD08B54FF40D
:1042B0000060ADF8000003208DF8020010208DF89A
:1042C00003006946894803F015FA08BD08B54FF4A4
:1042D0000060ADF8000048208DF80300694683486F
:1042E00003F008FA08BD10B5FFF7E0FF4FF40061D6
:1042F0007E4803F0ACFA4FF480617C4803F0A7FAE3
:104300000320FCF712F94FF40061784803F0A1FA9A
:104310000320FCF70AF94FF48061744803F099FA1E
:1043200010BD10B5FFF7C2FF4FF480616F4803F076
:1043300090FA4FF400616D4803F08BFA4FF48061FE
:104340006A4803F084FA0320FCF7EFF84FF40061A9
:10435000664803F07CFA0320FCF7E7F810BD10B5BF
:104360004FF48061614803F074FAFFF79FFF4FF448
:1043700000615E4803F06DFA0320FCF7D6F84FF4B5
:1043800080615A4803F063FA0320FCF7CEF84FF43B
:104390008061564803F05DFA10BD10B54FF480619E
:1043A000524803F056FAFFF781FF4FF400614F487F
:1043B00003F04DFA0320FCF7B8F84FF480614B4846
:1043C00003F045FA0320FCF7B0F84FF4806147484A
:1043D00003F03FFA10BD10B50024FFF777FF4FF44C
:1043E0000061424803F033FA0320FCF79EF84FF4D3
:1043F00080613E4803F02BFA0320FCF796F807E0B3
:10440000601CC4B2FA2C03DDFFF78BFF012010BD46
:104410004FF40061354803F000FA0028F0D14FF462
:104420008061324803F015FA0020F0E770B50446C9
:104430000025FFF73BFF4FF480612C4803F009FA99
:1044400000BF22E004F08000002805DD4FF4006189
:10445000264803F0FCF904E04FF40061234803F020
:10446000F8F96006040E4FF48061204803F0EFF97C
:104470000320FCF75AF84FF480611C4803F0E9F977
:104480000320FCF752F8681CC5B2082DDADB70BDBA
:1044900070B5054600260024FFF718FF00BF1BE09B
:1044A0004FF48061114803F0D4F90320FCF73DF884
:1044B0004FF480610D4803F0CAF96006040E4FF412
:1044C00000610A4803F0A9F908B1601CC4B20320D6
:1044D000FCF72BF8701CC6B2082EE1DB15B9FFF70C
:1044E0005CFF01E0FFF73BFF204670BD000C014080
:1044F00008B50620ADF8000003208DF8020010205A
:104500008DF8030069460E4803F0F4F802200C49C8
:1045100048610420486108BD08B54FF48070ADF8CB
:10452000000003208DF8020010208DF8030069467A
:10453000034803F0DFF84FF480700149486108BD7B
:104540000010014000E0401E0028FCD1704708B573
:10455000F1480088F14909880843ADF800000320BC
:104560008DF8020010208DF803006946EC480068C1
:1045700003F0C0F808BD08B5E7480088ADF80000B2
:1045800003208DF8020010208DF803006946E448EE
:10459000006803F0AFF808BD08B5DF480088ADF843
:1045A000000048208DF803006946DD48006803F0EC
:1045B000A1F808BD70B505460026FFF7DCFF802492
:1045C00023E004EA050030B1D3480188D4480068EC
:1045D00003F03DF905E0D0480188D148006803F0B8
:1045E00038F9CE480188CE48006803F030F9012040
:1045F000FFF7A8FFC9480188C948006803F029F9F6
:10460000204604EBD071C1F34704002CD9DCC34829
:104610000188C348006803F01AF9FFF7BDFFBE48E0
:104620000188BF48006803F0F8F80646FFF7A3FFCB
:10463000BA480188BA48006803F00BF9304670BDEB
:1046400070B505460026FFF7A7FFB3480188B448B8
:10465000006803F0FCF8802418E0B0480188B048F6
:10466000006803F0F4F8AC480188AD48006803F036
:10467000D4F800B12643A9480188A948006803F08E
:10468000E8F8204604EBD071C1F34704002CE4DCC9
:10469000FFF771FF012D06D19F480188A0480068EF
:1046A00003F0D7F805E09C4801889D48006803F0B6
:1046B000CEF89A4801889A48006803F0C8F80120AB
:1046C000FFF740FF954801889548006803F0C1F85E
:1046D0000120FFF737FF904801889148006803F0F8
:1046E000B6F8304670BD10B58B4801888C4800681C
:1046F00003F0ADF8894801888948006803F0A9F8FB
:104700000120FFF71FFF854801888548006803F0F6
:104710009EF80120FFF716FF7F4801888048006857
:1047200003F097F80120FFF70DFF7C4801887C48D3
:10473000006803F08EF80120FFF704FF7748018836
:104740007748006803F083F80120FFF7FBFE72480A
:1047500001887348006803F07AF80120FFF7F2FE41
:104760006E4801886E48006803F073F810BD2DE9AB
:10477000F04705460E46174698460024A146B8F174
:10478000010F03D0B8F1020F14D109E06548644964
:10479000086040206149088080205F4908800AE065
:1047A00061485F490860C0145C49088040005A496C
:1047B000088000E000BF00BFFFF7C9FEFFF793FFCE
:1047C00017B1012F0CD105E00320FFF7F3FE2044C1
:1047D000C4B206E00520FFF7EDFE2044C4B200E0BD
:1047E00000BF00BFFFF7D8FE0EE00220FBF7B8FEC7
:1047F00009F1010000F0FF09B9F1820F04DD4FF06B
:104800000009601CC4B207E04348018844480068BE
:1048100003F003F80028E8D100BFFFF7ACFE012049
:10482000FFF70EFF28700120FFF70AFF68700020D5
:10483000FFF706FF30702046BDE8F08770B50446EC
:104840003A4E6178227801EB0221881907F0E0FCEA
:1048500005463749284607F0A9FB0546284670BD9E
:104860002DE9F0410446334D04276178227801EBAD
:10487000022107FB015007F0CBFC06462C493046CD
:1048800007F094FB06462A49304607F0EDFD00D2BA
:10489000274E3046BDE8F08110B50446012C02D009
:1048A000022C37D11BE0234600222349881FFFF743
:1048B0005EFF2148801FFFF7C1FF1F49183988603C
:1048C000234601221831A1F10800FFF750FF1A48D2
:1048D0000838FFF7C5FF1849183908601AE0234661
:1048E00000221549881EFFF742FF1348801EFFF77C
:1048F000A5FF11491839C860234601221831081F45
:10490000FFF735FF0C48001FFFF7AAFF0A491839C7
:10491000486000BF00BF10BD5600002054000020BA
:1049200050000020001001400008014060F0FFFF2F
:104930000000C84270FEFFFF1804002008B53320B5
:10494000ADF8000048208DF803006946354802F0B4
:10495000D1FE0820ADF8000048208DF8030069461C
:10496000314802F0C7FE08BD10B5FFF7E7FF40F27F
:104970001F311320FBF751FF10BD1CB50020009024
:1049800001900121274802F048FF8DF80000022124
:10499000244802F042FF8DF801001021214802F066
:1049A0003CFF8DF8020020211E4802F036FF8DF8F2
:1049B000030008211C4802F030FF8DF804009DF828
:1049C00000009DF8011040EA41009DF8021040EA05
:1049D00081009DF8031040EAC1009DF8041040EAF0
:1049E0000110C0B21CBD00B58DB0104880790128FF
:1049F00015D10E49487902F034F80E220C49684668
:104A000006F0E7FB1E220A49103905A806F0E1FB73
:104A100005A80FC8FEF7C3FA0020044988710DB03D
:104A200000BD0000000801400010014058000020B7
:104A3000F003002008B51020ADF8000048208DF8E4
:104A400003006946014802F055FE08BD0010014010
:104A500010B50020FEF7A4FB0020FEF7ABFB002002
:104A6000FEF7B2FB0020FEF7F6FA0020FEF741FB4E
:104A70000020FEF782FB0A20FEF792FC0C20FEF7D6
:104A8000D1FC0120FEF7AAFBFA49097B0809FEF7D1
:104A90000BFDF849097B01F00F00FEF747FDF549D2
:104AA000497B0809FEF789FDF249497B01F00F00B7
:104AB000FEF7C5FDEF49897B0809FEF702FEED49C7
:104AC000897B01F00F00FEF73EFE10BDF0B58DB002
:104AD00005460C4600260020FEF762FB0020FEF78C
:104AE00069FB0020FEF770FB0020FEF7B4FA0020FF
:104AF000FEF7FFFA0020FEF740FB0120FEF750FC16
:104B00000D20FEF78FFC0120FEF768FB1120FEF759
:104B1000CBFC1120FEF70AFD1120FEF74EFD0DBB68
:104B2000642094FBF0F0C7B23846FEF788FD64209D
:104B300094FBF0F100FB11400A2190FBF1F0C7B2A9
:104B40003846FEF7BEFD642094FBF0F100FB1140F7
:104B50000A2190FBF1F201FB1200C7B23846FEF7C2
:104B6000F2FD53E000264FE01120FEF768FD112012
:104B7000FEF7A7FD1120FEF7E6FD0E22BE496846AE
:104B800006F027FB1E22BC49103905A806F021FBC0
:104B900005A80FC8FEF703FA3220FBF7E1FC6420FA
:104BA00094FBF0F0C7B23846FEF749FD642094FB51
:104BB000F0F100FB11400A2190FBF1F0C7B238463A
:104BC000FEF77FFD642094FBF0F100FB11400A2109
:104BD00090FBF1F201FB1200C7B23846FEF7B3FDBD
:104BE0000E22A549684606F0F4FA1E22A2491039A1
:104BF00005A806F0EEFA05A80FC8FEF7D0F91420B4
:104C0000FBF7AEFC701CC6B2052EADDB0DB0F0BDDF
:104C100070B58CB005460C4600260020FEF7C0FAA1
:104C20000020FEF7C7FA0020FEF7CEFA0020FEF7BC
:104C300012FA0020FEF75DFA0020FEF79EFA0B2024
:104C4000FEF7AEFB0D20FEF7EDFB0120FEF7C6FAE6
:104C50001120FEF729FC1120FEF768FC1120FEF759
:104C6000ACFC1120FEF7EBFC1120FEF72AFD1DB96C
:104C7000E0B2FEF768FD2FE000262BE01120FEF7E2
:104C800062FD0E227C49684606F0A3FA1E227A498C
:104C9000103904A806F09DFA04A80FC8FEF77FF9A2
:104CA0003220FBF75DFCE0B2FEF74DFD0E227249AB
:104CB000684606F08EFA1E226F49103904A806F0E5
:104CC00088FA04A80FC8FEF76AF91420FBF748FC1D
:104CD000701CC6B2052ED1DB0CB070BD70B58CB0A7
:104CE00005460C4600260020FEF75AFA0020FEF783
:104CF00061FA0020FEF768FA0020FEF7ACF9002008
:104D0000FEF7F7F90020FEF738FA0E20FEF748FB11
:104D10000D20FEF787FB0120FEF760FA1120FEF759
:104D2000C3FB1120FEF702FC1120FEF746FC112008
:104D3000FEF785FC1120FEF7C4FC1DB9E0B2FEF7BA
:104D400002FD2FE000262BE01120FEF7FCFC0E22D6
:104D50004949684606F03DFA1E224749103904A821
:104D600006F037FA04A80FC8FEF719F93220FBF74E
:104D7000F7FBE0B2FEF7E7FC0E223F49684606F07B
:104D800028FA1E223C49103904A806F022FA04A889
:104D90000FC8FEF704F91420FBF7E2FB701CC6B243
:104DA000052ED1DB0CB070BD70B58CB005460C463D
:104DB00000260020FEF7F4F90020FEF7FBF90020A2
:104DC000FEF702FA0020FEF746F90020FEF791F9FF
:104DD0000020FEF7D2F90B20FEF7E2FA0B20FEF7D7
:104DE00021FB0120FEF7FAF91120FEF75DFB1120EF
:104DF000FEF79CFB1120FEF7E0FB1120FEF71FFCE5
:104E00001120FEF75EFC1DB9E0B2FEF79CFC2FE01E
:104E100000262BE01120FEF796FC0E22164968466C
:104E200006F0D7F91E221449103904A806F0D1F96A
:104E300004A80FC8FEF7B3F83220FBF791FBE0B2ED
:104E4000FEF781FC0E220C49684606F0C2F91E22CC
:104E50000949103904A806F0BCF904A80FC8FEF7E8
:104E60009EF81420FBF77CFB701CC6B2052ED1DB2C
:104E70000CB070BDA2010020F003002070B58CB012
:104E800005460C4600260020FEF78AF90020FEF7B2
:104E900091F90020FEF798F90020FEF7DCF80020D9
:104EA000FEF727F90020FEF768F90E20FEF778FAE2
:104EB0000A20FEF7B7FA0120FEF790F91120FEF75D
:104EC000F3FA1120FEF732FB1120FEF776FB1120DA
:104ED000FEF7B5FB1120FEF7F4FB1DB9E0B2FEF7BB
:104EE00032FC2FE000262BE01120FEF72CFC0E22D6
:104EF000F849684606F06DF91E22F649103904A8F3
:104F000006F067F904A80FC8FEF749F83220FBF74E
:104F100027FBE0B2FEF717FC0E22EE49684606F0CA
:104F200058F91E22EB49103904A806F052F904A8DA
:104F30000FC8FEF734F81420FBF712FB701CC6B242
:104F4000052ED1DB0CB070BDF0B58DB005460C461A
:104F500000260020FEF724F90020FEF72BF90020A0
:104F6000FEF732F90020FEF776F80020FEF7C1F8D0
:104F70000020FEF702F90520FEF712FA0E20FEF7D8
:104F800051FA0120FEF72AF91120FEF78DFA1120BF
:104F9000FEF7CCFA1120FEF710FB1120FEF74FFBB5
:104FA00095BB42F2107094FBF0F100FB11404FF4FE
:104FB0007A7190FBF1F201FB1200642190FBF1F297
:104FC00001FB12000A2190FBF1F0C7B23846FEF750
:104FD00078FB42F2107094FBF0F100FB11404FF4AB
:104FE0007A7190FBF1F201FB1200642190FBF1F267
:104FF00001FB12000A2190FBF1F201FB1200C7B283
:105000003846FEF7A0FB62E0FFE700265DE01120D6
:10501000FEF757FB1120FEF796FB0E22AD496846BE
:1050200006F0D7F81E22AB49103905A806F0D1F8D2
:1050300005A80FC8FDF7B3FF3220FBF791FA42F243
:10504000107094FBF0F100FB11404FF47A7190FB6B
:10505000F1F201FB1200642190FBF1F201FB12005E
:105060000A2190FBF1F0C7B23846FEF72AFB42F264
:10507000107094FBF0F100FB11404FF47A7190FB3B
:10508000F1F201FB1200642190FBF1F201FB12002E
:105090000A2190FBF1F201FB1200C7B23846FEF77D
:1050A00052FB0E228B49684606F093F81E2289496E
:1050B000103905A806F08DF805A80FC8FDF76FFF99
:1050C0001420FBF74DFA701CC6B2052E9FDB0DB005
:1050D000F0BD70B58CB005460C4600260020FEF7EA
:1050E0005FF80020FEF766F80020FEF76DF800205C
:1050F000FDF7B1FF0020FDF7FCFF0020FEF73DF8B3
:105100000F20FEF74DF90120FEF78CF90120FEF784
:1051100065F81120FEF7C8F91120FEF707FA1120F3
:10512000FEF74BFA1120FEF78AFA1120FEF7C9FAB2
:105130001DB9E0B2FEF707FB2FE000262BE011209F
:10514000FEF701FB0E226349684606F042F81E2274
:105150006049103904A806F03CF804A80FC8FDF710
:105160001EFF3220FBF7FCF9E0B2FEF7ECFA0E224C
:105170005849684606F02DF81E225649103904A8F1
:1051800006F027F804A80FC8FDF709FF1420FBF765
:10519000E7F9701CC6B2052ED1DB0CB070BD70B53E
:1051A0008CB005460C4600260020FDF7F9FF0020D4
:1051B000FEF700F80020FEF707F80020FDF74BFF90
:1051C0000020FDF796FF0020FDF7D7FF0F20FEF728
:1051D000E7F80220FEF726F90120FDF7FFFF112076
:1051E000FEF762F91120FEF7A1F91120FEF7E5F9AB
:1051F0001120FEF724FA1120FEF763FA1DB9E0B280
:10520000FEF7A1FA2FE000262BE01120FEF79BFA13
:105210000E223049684605F0DCFF1E222D49103968
:1052200004A805F0D6FF04A80FC8FDF7B8FE322089
:10523000FBF796F9E0B2FEF786FA0E22254968469A
:1052400005F0C7FF1E222349103904A805F0C1FF4D
:1052500004A80FC8FDF7A3FE1420FBF781F9701C0A
:10526000C6B2052ED1DB0CB070BD70B58CB0054652
:105270000C4600260020FDF793FF0020FDF79AFF63
:105280000020FDF7A1FF0020FDF7E5FE0020FDF75F
:1052900030FF0020FDF771FF0F20FEF781F803209B
:1052A000FEF7C0F80120FDF799FF1120FEF7FCF88A
:1052B0001120FEF73BF91120FEF77FF91120FEF7D0
:1052C000BEF91120FEF7FDF935B9E0B2FEF73BFA61
:1052D00032E00000F003002000262BE01120FEF752
:1052E00032FA0E22FB49684605F073FF1E22F94987
:1052F000103904A805F06DFF04A80FC8FDF74FFE94
:105300003220FBF72DF9E0B2FEF71DFA0E22F1492B
:10531000684605F05EFF1E22EE49103904A805F02C
:1053200058FF04A80FC8FDF73AFE1420FBF718F940
:10533000701CC6B2052ED1DB0CB070BD2DE9F04358
:105340008DB006460D46144600270A2D01DB132DAD
:1053500002DD0DB0BDE8F0830020FDF721FF012044
:10536000FDF728FF0020FDF72FFF0020FDF773FE5B
:105370000020FDF7BEFE0020FDF7FFFE002C04DA42
:1053800001210220FDF72CFE03E000210220FDF7A1
:1053900027FEA5F10A000A2816D2DFE800F005066C
:1053A0000E0F07081011090A00BF00BF00BF00BFA1
:1053B00000BF0120FDF7E1FE06E000BF00BF00BF17
:1053C0000120FDF796FE00BF00BF0A20FDF7E8FFB1
:1053D000A5F10A01C8B2FEF725F80120FDF7FEFE8F
:1053E0001120FEF761F81120FEF7A0F8EEBBB4F132
:1053F000000801DB404601E0C8F100004FF47A717B
:1054000090FBF1F000F0FF094846FEF7D6F8B4F142
:10541000000801DB404601E0C8F100004FF47A715A
:1054200090FBF1F201FB1200642190FBF1F000F01F
:10543000FF094846FEF703F9B4F1000801DB4046D6
:1054400001E0C8F100004FF47A7190FBF1F201FB2A
:105450001200642190FBF1F201FB12000A2190FB83
:10546000F1F000F0FF09484600E01EE0FEF729F9E0
:10547000B4F1000801DB404601E0C8F100004FF440
:105480007A7190FBF1F201FB1200642190FBF1F2C2
:1054900001FB12000A2190FBF1F201FB120000F067
:1054A000FF094846FEF74FF991E000278CE01120F4
:1054B000FEF783F81120FEF7C2F81120FEF701F97C
:1054C0001120FEF740F90E228249684605F081FE60
:1054D0001E228049103905A805F07BFE05A80FC8DB
:1054E000FDF75DFD3220FBF73BF8B4F1000801DB6E
:1054F000404601E0C8F100004FF47A7190FBF1F0F2
:1055000000F0FF094846FEF758F8B4F1000801DB47
:10551000404601E0C8F100004FF47A7190FBF1F2CF
:1055200001FB1200642190FBF1F000F0FF094846F6
:10553000FEF785F8B4F1000801DB404601E0C8F150
:1055400000004FF47A7190FBF1F201FB120064212C
:1055500090FBF1F201FB12000A2190FBF1F000F048
:10556000FF094846FEF7ADF8B4F1000801DB4046FC
:1055700001E0C8F100004FF47A7190FBF1F201FBF9
:105580001200642190FBF1F201FB12000A2190FB52
:10559000F1F201FB120000F0FF094846FEF7D3F8D4
:1055A0000E224C49684605F014FE1E224949103966
:1055B00005A805F00EFE05A80FC8FDF7F0FC1420A5
:1055C000FAF7CEFF781CC7B2052FFFF670AF00BF09
:1055D000BFE62DE9F0438DB006460D461446002780
:1055E000142D01DB1D2D02DD0DB0BDE8F083002080
:1055F000FDF7D6FD0020FDF7DDFD0120FDF7E4FD00
:105600000020FDF728FD0020FDF773FD0020FDF7C9
:10561000B4FD002C04DA01210220FDF7E1FC03E0D7
:1056200000210220FDF7DCFC0C20FDF7B9FEA5F1FE
:105630001401C8B2FDF7F6FE0120FDF7CFFD1120E1
:10564000FDF732FF002E7CD1B4F1000801DB4046AB
:1056500001E0C8F1000042F2107190FBF1F000F09F
:10566000FF094846FDF762FFB4F1000801DB404640
:1056700001E0C8F1000042F2107190FBF1F201FB71
:1056800012004FF47A7190FBF1F000F0FF094846E8
:10569000FDF793FFB4F1000801DB404601E0C8F1DB
:1056A000000042F2107190FBF1F201FB12004FF486
:1056B0007A7190FBF1F201FB1200642190FBF1F092
:1056C00000F0FF094846FDF7BAFFB4F1000803DB1C
:1056D000404603E0F0030020C8F1000042F21071E0
:1056E00090FBF1F201FB12004FF47A7190FBF1F2A2
:1056F00001FB1200642190FBF1F201FB12000A2170
:1057000090FBF1F000F0FF094846FDF7DAFFB4F135
:10571000000801DB404601E0C8F1000042F21071D0
:1057200090FBF1F201FB12004FF47A7190FBF1F261
:1057300001FB1200642190FBF1F201FB12000A212F
:1057400000E009E090FBF1F201FB120000F0FF091C
:105750004846FDF7F8FFBCE00027B7E01120FDF751
:10576000E5FE1120FDF729FF1120FDF768FF11204C
:10577000FDF7A7FF1120FDF7E6FF0E22FD49684661
:1057800005F027FD1E22FB49103905A805F021FD73
:1057900005A80FC8FDF703FC3220FAF7E1FEB4F1CB
:1057A000000801DB404601E0C8F1000042F2107140
:1057B00090FBF1F000F0FF094846FDF7B7FEB4F1A9
:1057C000000801DB404601E0C8F1000042F2107120
:1057D00090FBF1F201FB12004FF47A7190FBF1F0B3
:1057E00000F0FF094846FDF7E8FEB4F1000801DBD0
:1057F000404601E0C8F1000042F2107190FBF1F266
:1058000001FB12004FF47A7190FBF1F201FB1200E0
:10581000642190FBF1F000F0FF094846FDF70FFF0F
:10582000B4F1000801DB404601E0C8F1000042F29B
:10583000107190FBF1F201FB12004FF47A7190FBB2
:10584000F1F201FB1200642190FBF1F201FB120066
:105850000A2190FBF1F000F0FF094846FDF731FF07
:10586000B4F1000901DB484601E0C9F1000042F251
:10587000107190FBF1F201FB12004FF47A7190FB72
:10588000F1F201FB1200642190FBF1F201FB120026
:105890000A2190FBF1F201FB120000F0FF084046E4
:1058A000FDF751FF0E22B349684605F092FC1E2217
:1058B000B049103905A805F08CFC05A80FC8FDF704
:1058C0006EFB1420FAF74CFE781CC7B2052FFFF6CA
:1058D00045AF00BF88E6F0B58DB006460C46002502
:1058E0001E2E01DB232E01DD0DB0F0BD0020FDF7E3
:1058F00057FC0020FDF75EFC0020FDF765FC002052
:10590000FDF7A9FB0020FDF7F4FB0020FDF735FCB7
:105910001120FDF745FD1120FDF784FD0020FDF766
:105920005DFC1120FDF7C0FD1120FDF7FFFD0220F9
:10593000FDF743FE0020FDF782FEA6F11E000628BB
:105940004AD2DFE800F0034A8DD0FEFD002541E099
:105950001120FDF7B6FE1120FDF7F5FE0E22854958
:10596000684605F036FC1E228249103905A805F06C
:1059700030FC05A80FC8FDF712FB3220FAF7F0FD46
:105980002068A0F5FA600A2190FBF1F0C7B2384612
:10599000FDF797FE2068A0F5FA600A2190FBF1F26E
:1059A00001FB1200C7B23846FDF7CDFE0E22714949
:1059B000684605F00EFC1E226E49103905A805F058
:1059C00008FC05A80FC8FDF7EAFA1420FAF7C8FD8D
:1059D000681CC5B2052DBBDB54E100253DE011205C
:1059E000FEF799FA1120FEF7CBF90E2261496846BD
:1059F00005F0EFFB1E225F49103905A805F0E9FB11
:105A000005A80FC8FDF7CBFA3220FAF7A9FD2079D7
:105A10000A2190FBF1F0C7B23846FEF77CFA2079F4
:105A20000A2190FBF1F201FB1200C7B23846FEF7E3
:105A3000A7F90E224F49684605F0CBFB1E224D49BF
:105A4000103905A805F0C5FB05A80FC8FDF7A7FA92
:105A50001420FAF785FD681CC5B2052DBFDB11E1E6
:105A600000253DE01120FEF7D2F91120FEF711FAD2
:105A70000E224049684605F0ACFB1E223D49103914
:105A800005A805F0A6FB05A80FC8FDF788FA322087
:105A9000FAF766FD60790A2190FBF1F0C7B238464B
:105AA000FEF7B5F960790A2190FBF1F201FB1200D3
:105AB000C7B23846FEF7EDF90E222E49684605F0CA
:105AC00088FB1E222B49103905A805F082FB05A88A
:105AD0000FC8FDF764FA1420FAF742FD681CC5B23E
