:020000040800F2
:10000000702D002015020008C50500081107000822
:100010001907000821070008290700080000000050
:100020000000000000000000000000003107000890
:1000300039070008000000004107000849070008D0
:100040002F0200082F0200082F0200082F020008CC
:100050002F0200082F0200082F0200084D07000899
:100060004F070008510700082F0200082F02000860
:100070002F0200082F0200082F0200082F0200089C
:100080002F0200082F0200082F0200082F0200088C
:100090002F0200082F0200082F0200084B0700085B
:1000A0002F0200082F0200082F0200082F0200086C
:1000B0007B06000895060008AB0600082F02000822
:1000C0002F0200082F0200082F0200082F0200084C
:1000D0002F020008CD050008F10500082F020008D6
:1000E0002F0200082F0200082F0200082F0200082C
:1000F0002F0200082F0200082F0200082F0200081C
:100100002F0200082F0200082F0200082F0200080B
:100110002B0600082F0200082F0200082F020008FB
:100120002F0200082F0200082F0200082F020008EB
:1001300000F002F800F05FF80AA090E8000C82449A
:100140008344AAF10107DA4501D100F054F8AFF277
:10015000090EBAE80F0013F0010F18BFFB1A43F0A5
:100160000103184760C8000080C800000A444FF02F
:10017000000C10F8013B13F0070408BF10F8014B06
:100180001D1108BF10F8015B641E05D010F8016B4B
:10019000641E01F8016BF9D113F0080F1EBF10F8AF
:1001A000014BAD1C0C1B09D16D1E58BF01F801CBD2
:1001B000FAD505E014F8016B01F8016B6D1EF9D555
:1001C0009142D6D37047000000230024002500266A
:1001D000103A28BF78C1FBD8520728BF30C148BFAA
:1001E0000B60704773290BF07081002070471FB5BA
:1001F0001FBD10B510BD0BF0C5F91146FFF7F7FF95
:1002000000F05CF80BF0E3F903B4FFF7F2FF03BC76
:100210000BF0AAF90948804709480047FEE7FEE7C6
:10022000FEE7FEE7FEE7FEE7FEE7FEE7FEE7FEE7A6
:1002300004480549054A064B704700008DA2000896
:100240003101000870270020702D00207029002047
:100250007029002010B50AF019F80121042007F0D8
:10026000C1FD0121082007F0BDFD0121102007F08C
:10027000B9FD0121084607F0C2FD0121042007F065
:10028000BEFD0121880307F0ADFD0121480407F000
:10029000B6FD0121C80407F0B2FD0121084607F0B0
:1002A00094FD0121480207F09DFD0121880307F01C
:1002B000A6FD0121084607F095FD10BD08B5FFF722
:1002C000C9FF00F0ADF801F030FA1D48007A009047
:1002D0001B4843680178002210460AF045FD0AF0E9
:1002E000A1FD01F053FE02F07FFD04F0EDF806F0F1
:1002F000D9FC04F077FB06F007FD04F00DFB03F0DA
:10030000A7FF06F070FD02F004FE02F019FC02F0F7
:1003100008FC07F019F807F06BF80A4806F0D4FD5E
:1003200001F0F6FD02F04BF908E00AF0A0FD0648E6
:1003300001F01FFA04F02FFB00F055FEF5E7000076
:1003400054030020240600202400002010B507F0EC
:10035000DBFB4FF4803007F0F7FB07F034FC01289B
:1003600020D1002007F075FC002007F084FC4FF43A
:10037000806007F077FC4FF4E0114FF4803007F015
:100380004BFC012007F054FC00BF392007F0FFFBB5
:100390000028FAD0022007F04EFC00BF07F054FC02
:1003A0000828FBD110BD012080F3138800BF00BFD7
:1003B0008048006800F4E0607F490843001D7D49E3
:1003C0000860BFF3408F00BF00BFFEE730B50246B4
:1003D0004FF6FF7001B9012111E01478604000234D
:1003E0000AE000F0010424B140104AF20104604028
:1003F00000E040105C1CE3B2082BF2DB521C0C0046
:10040000A1F10101E9D130BD0146002005E06B4AB0
:100410000244D2F8E8270A54401C0C28F7D370474E
:1004200000B56748FFF7F0FF0C216548FFF7CEFFE6
:10043000634908820846008A001208730846017C56
:1004400041730178817300BD10B5044609F07BFA51
:10045000352009F013FD204609F0BAFA09F07FFAB9
:1004600010BD2DE9F04107460D4614464FF0000837
:100470002046E11704EB91718910A4EB810101F092
:10048000FF08B8F1000F09D0B8F1010F07D0B8F19B
:10049000020F07D0B8F1030F0AD106E008E0E01C14
:1004A00084B205E0A01C84B202E0601C84B200BFEC
:1004B00000BF2046E11704EB9171C1F38F0409F0EE
:1004C00042FA352009F0DAFC384609F081FA12E0E8
:1004D00015F8016B15F8011B46EA012615F8011BFA
:1004E00046EA014615F8011B46EA016631463846E0
:1004F00009F03EFB3F1D2000A4F101018CB2E7D1C1
:10050000BDE8F08110B503E010F8013B01F8013BB4
:100510001300A2F10104A2B2F6D110BD00E0401E0A
:100520000028FCD1704701464FF0E02251610022C3
:100530004FF0E0239A6101221A6100BF4FF0E022E0
:10054000106900F001021AB100F48032002AF5D0DF
:1005500000224FF0E0231A619A61704701464FF480
:100560007A724A434FF0E0235A6100229A610122D5
:100570001A6100BF4FF0E022106900F001021AB1C9
:1005800000F48032002AF5D000224FF0E0231A61F7
:100590009A61704710B50121042007F0C5FC0121C4
:1005A000080707F02CFC012009F0D0FD09F0EDFD53
:1005B00010BD00000CED00E00000FA0500F0FF1F88
:1005C000A201002010B5FFF7EEFE10BD10B540F2FD
:1005D0002551604808F0A6FD48B15E4808F022FDAC
:1005E000C4B2EE23AA225521204600F0E8FB10BD3C
:1005F00010B540F22551584808F094FD30B10AF08A
:1006000070FD40F22551544808F0B6FD40F22771C4
:10061000514808F087FD012806D10AF05DFD40F23F
:1006200027714D4808F0A8FD10BD10B540F22551C6
:100630004A4808F077FDF8B1484808F0F3FCC4B226
:10064000EE23AA225521204600F0B9FB4448D0F8F9
:100650000002B0F5007F0BDA4148D0F80012D0F864
:100660000002401C3E4AC2F800021046445403E017
:1006700000203B49C1F8000210BD10B501218807D8
:1006800008F07BFB28B10AF075FD0121880708F00E
:1006900085FB10BD10B50121324808F06EFB18B182
:1006A0000121304808F07AFB10BD10B501212E4819
:1006B00008F063FB58B301212B4808F06FFB2B486F
:1006C0004088401C2949488004F02FF928490871C6
:1006D000084600791F280AD00846807970B9084674
:1006E0000068401C086008460079487106E0204810
:1006F0000068322802D800201D4908601C480068A4
:10070000322804D901201A4988710020086010BDE0
:1007100001E0FFF748FEFCE701E0FFF744FEFCE7DD
:1007200001E0FFF740FEFCE701E0FFF73CFEFCE7DD
:1007300010B5FFF738FE10BD10B5FFF734FE10BD41
:1007400010B5FFF730FE10BD704770477047704717
:10075000704700000038014000440040004C004059
:100760001C04002000040040000800400C00002091
:10077000580000207FB505460C46ADF80450ADF892
:1007800000400020ADF80200ADF8060069464FF0C9
:10079000804007F0CDFC4FF4C06007F087FB1C20C1
:1007A0008DF80C0000208DF80D0001208DF80E0052
:1007B0008DF80F0003A807F07EFB7FBD7FB50546CF
:1007C0000C46ADF80450ADF800400020ADF8020032
:1007D000ADF806006946594807F0AAFC4FF4C0601E
:1007E00007F064FB1D208DF80C0000208DF80D0033
:1007F00002208DF80E0001208DF80F0003A807F0ED
:100800005AFB012211464D4808F009F801214B48D6
:1008100007F0EAFF7FBD7FB505460C46ADF80450F2
:10082000ADF800400020ADF80200ADF806006946C2
:10083000434807F07DFC4FF4C06007F037FB1E20F3
:100840008DF80C0003208DF80D008DF80E000120AE
:100850008DF80F0003A807F02EFB0122114638483F
:1008600007F0DDFF0121364807F0BEFF7FBD10B560
:100870008CB034484088B0F5FA7F5DDB0020314908
:10088000488008468088401C888000202E494860A7
:100890002E48007800284FD101F072FA2C4802F05F
:1008A000E4F82B4807C801F04AFC0E2229496846A3
:1008B0000AF04BFD1E222749103904A80AF045FD15
:1008C00004A80FC802F057FB002001F027FB0446E4
:1008D00021490BF0C3FD21490860086801F0A1FC23
:1008E0001B49087A01F0C2F81D4803C81D4BCDE929
:1008F00004010C330FCB8DE80F001A480EC81A48BC
:1009000001F00BFA19481A4B0090114807C806F07D
:100910006CFC06F094FA01F04FFF0E220D49684678
:100920000AF013FD1E220B49103904A80AF00DFD30
:1009300004A80FC802F01FFB0CB010BD000400405B
:10094000000800400C000020C802002060000020C9
:10095000C8030020F00300200000404028000020D1
:100960007000002000040020B401002038060020A0
:100970002406002030B503460020022917DB8D181D
:10098000072D14DC624D2D884C1B0DE0614D35F8B0
:1009900014502D1203F8015B5E4D15F8145003F846
:1009A000015B641C551EAAB2002AEFDC00E00120A6
:1009B00030BDF0B504460D460020022D34DBAE18E4
:1009C000862E31DC544E3688A91B13B1012B2AD157
:1009D00011E00DE0514E36F81160361204F8016B4B
:1009E0004E4E16F8116004F8016B491C561EB2B247
:1009F000002AEFDC17E010E014F8017B3E02474FBD
:100A000027F8116014F8016B37F811703E43434F1B
:100A100027F81160491C561EB2B2002AECDC0126F0
:100A20003F4F3E7000BF00E00120F0BD2DE9F047D0
:100A300005460E46904699464FF0000A4446022E5F
:100A400035DB06EB08000A2831DCB01E87B2B9F1AD
:100A5000000F03D0B9F1010F28D113E00FE0082CEB
:100A600001DD082000E02046C2B239462D4809F0D9
:100A700087FF05F8010B083C07F1080087B2002C3E
:100A8000EDDC13E00FE015F8013B082C01DD082038
:100A900000E02046C2B23946224809F03DFF083C3A
:100AA00007F1080087B2002CEDDC00BF01E04FF039
:100AB000010A5046BDE8F0872DE9F04705460C468F
:100AC00016464FF0000937B2022C1CDBA0190A2889
:100AD00019DCA01E1FFA80F812E0082F01DD0820A3
:100AE00000E03846C2B241460F4809F049FF05F818
:100AF000010BA7F1080007B208F108001FFA80F8FF
:100B0000002FEADC01E04FF001094846BDE8F0871C
:100B100012000020B401002014000020BE010020BB
:100B200024000020160000201700002008B54FF414
:100B30000070ADF8000003208DF8020018208DF839
:100B400003006946FE4806F091FE4FF48060ADF860
:100B5000000004208DF803006946F94806F086FE7F
:100B60000220ADF8000003208DF8020010208DF85F
:100B700003006946F24806F079FE0420ADF8000053
:100B800003208DF8020018208DF803006946EC4818
:100B900006F06CFE0820ADF8000004208DF803007C
:100BA0006946E74806F062FE4020ADF800000320E9
:100BB0008DF8020010208DF803006946E04806F029
:100BC00055FE4021DE4806F000FF4FF48060ADF88E
:100BD000000003208DF8020018208DF803006946FC
:100BE000D84806F043FE4FF40060ADF80000042042
:100BF0008DF803006946D34806F038FE08BD08B5F5
:100C00004FF4C06007F052F925208DF80000002055
:100C10008DF801008DF8020001208DF80300684670
:100C200007F049F94FF4C06007F040F926208DF82D
:100C3000000000208DF8010001208DF802008DF8E1
:100C40000300684607F037F94FF4C06007F02EF94B
:100C500034208DF8000000208DF8010002208DF86E
:100C6000020001208DF80300684607F024F908BD52
:100C70002DE9FF4704460D4616461F46DDE90C895F
:100C800000940020ADF80400ADF80600ADF808703F
:100C9000ADF80C000C20ADF80A006946AA4808F02F
:100CA000C4F8012240F22551A74808F056F9012165
:100CB000A54808F046F94021A34808F02AFA009513
:100CC0000020ADF80400ADF80600ADF80880ADF8DE
:100CD0000C000C20ADF80A0069469C4808F0A5F805
:100CE000012240F22551994808F037F9012197482F
:100CF00008F027F94021954808F00BFA00960020EB
:100D0000ADF80400ADF80600ADF80890ADF80C00A1
:100D10000C20ADF80A0069468D4808F086F80122DB
:100D200040F225518A4808F018F90121884808F056
:100D300008F94021864808F0ECF9BDE8FF872DE965
:100D4000FC4704460D4616461F46DDE90A89FFF7B3
:100D5000EDFE3B46324629462046CDE90089FFF7A5
:100D600087FFFFF74CFFBDE8FC8770B504460D46D2
:100D70002946204608F052F900BF4021204608F0DD
:100D8000BBF90028F9D070BD70B505460C4604E0EB
:100D900021782846FFF7E9FF641C20780028F7D166
:100DA00070BD10B502460B461078012104E0545C7A
:100DB0000444E0B24C1CE1B29942F8DB10BDF0B53E
:100DC0000446644E7668802E2ED2624E30792546D7
:100DD00008363554461C5F4F7E60002520B93E46DC
:100DE000367A8E4200D00125012804D1594E767AF8
:100DF000964200D00125012D02D10026554F7E607C
:100E0000022814DD534E7768B67AB7420FD3461ED8
:100E1000504F0837BE5D9E4209D10026083F7E60D4
:100E2000012687F8886002E000264A4F7E60F0BD08
:100E30002DE9F05F83460F4615469846DDE90A9A8C
:100E4000002441465846FFF790FF04EB0800C4B267
:100E500049465846FFF789FF04EB0900C4B2681DF4
:100E6000C1B25846FFF781FF681D2044C4B2002676
:100E700007E0B95D5846FFF778FFB85D2044C4B27B
:100E8000761CAE42F5D351465846FFF76EFF04EB91
:100E90000A00C4B221465846FFF767FF0120BDE8AB
:100EA000F09F70B506460C4615460BE000BF40218A
:100EB000304608F021F90028F9D014F8011B30461B
:100EC00008F0ACF82800A5F101018DB2EED100BF09
:100ED0004021304608F010F90028F9D070BD70B5F7
:100EE00004460D4616464021154806F06CFD4FF4A9
:100EF000FA70FFF718FB324629462046FFF7D1FF6C
:100F00004FF4FA70FFF70FFB40210D4806F05DFD2E
:100F100070BD2DE9FF5F0F4616469846DDE90FAB21
:100F2000DDF83890002441460098FFF71EFF04EBDF
:100F30000800C4B249460098FFF717FF0CE0000014
:100F4000000801400010014000380140004400400A
:100F5000004C0040C802002004EB0900C4B206F1B6
:100F60000A00C1B20098FFF700FF06F10A00204412
:100F7000C4B206F10A00C0F307210098FFF7F5FE9E
:100F800006F10A0004EB2020C4B259460098FFF78E
:100F9000ECFE04EB0B00C4B2002509E0D248415D31
:100FA0000098FFF7E2FED048405D2044C4B26D1CBB
:100FB000032DF3D3002507E0795D0098FFF7D5FEF8
:100FC000785D2044C4B26D1CB542F5D351460098FB
:100FD000FFF7CBFE04EB0A00C4B221460098FFF7EE
:100FE000C4FEBDE8FF9FF0B589B0002400250026AF
:100FF000BE4890F88800012878D10020BB4981F8CC
:1010000088000846C07A312856D006DC112809D05D
:1010100012286CD0132821D112E133281FD0712857
:10102000F9D183E011208DF81000AF480C38007B17
:101030008DF81100AC480C38407B8DF81200AA489E
:101040000C38807B8DF81300EE20AA215523042252
:10105000CDE9001004A9A648FFF7EAFE40E1A34845
:10106000007BA1490C39097B884224D19F48417BF0
:101070009D480C38407B814201D1012000E00020D6
:101080009A498A7B98490C39897B8A4201D101218E
:1010900000E00021084070B1964840689649081A5F
:1010A000022808D301209549087092481422C1688B
:1010B000924806F01AFB13E18C48007B8A490C39F0
:1010C000097B884231D18948417B87480C38407B75
:1010D000814201D1012000E0002084498A7B8249BD
:1010E0000C39897B8A4203D1012102E0F9E05AE000
:1010F00000210840C8B107227C48407D7B49097D1A
:101100007A4FCDE90102009197F810C0FF7B4CEABD
:101110000727A7F5FA67F8B2744FFB7CBA7C797C95
:1011200001F006FC764801F0A0FCD9E06F48007B96
:101130006D490C39097B884234D16C48417B6A483F
:101140000C38407B814201D1012000E0002067493A
:101150008A7B65490C39897B8A4201D1012100E0F3
:1011600000210840F0B1634805F0CCFE71208DF8F5
:1011700010005D480C38007B8DF811005A480C387F
:10118000407B8DF8120058480C38807B8DF8130096
:10119000EE20AA2155230422CDE9001004A95448C9
:1011A000FFF746FE9CE05148007B4F490C39097B14
:1011B000884244D14D48417B4B480C38407B8142AA
:1011C00001D1012000E0002048498A7B46490C39C2
:1011D000897B8A4201D1012100E00021084070B3DF
:1011E00012208DF8100040480C38007B8DF811005B
:1011F0003D480C38407B8DF812003B480C38807B12
:101200008DF813003B484068000E8DF814003948F3
:101210004068000C8DF8150036488088000A8DF86B
:101220001600344800798DF81700EE20AA215523C6
:101230000822CDE9001004A92D48FFF7F9FD4FE081
:101240002A48007B28490C39097B884247D1274826
:10125000417B25480C38407B814201D1012000E0D0
:10126000002022498A7B20490C39897B8A4201D19E
:10127000012100E00021084088B31C48C07B010622
:101280001A48007C41EA00411848407C41EA0020AD
:101290001649897C40EA01051448C07C01061348C0
:1012A000007D41EA00411148407D41EA00200F499C
:1012B000897D40EA010633462A4612490D4805F069
:1012C00032FE04465CB11320EE21BB225523CDE94A
:1012D0000021029022460B490548FFF71AFE00BF85
:1012E00000BF09B0F0BD0000AE010020C802002020
:1012F00000380140240600207F1A0600380600202E
:10130000C80300204C06002010B5C4B000244FF4E0
:10131000867201A9FE48FFF7F5F89DF804005528EC
:1013200012D19DF80500AA280ED19DF80600552877
:101330000AD19DF80700AA2806D14FF4847202A9A9
:10134000F4480AF002F832E00120F2490880032054
:10135000488000208880C8800120088100204881C2
:10136000012088810020C8810882002406E0002135
:10137000E84A04F1090022F81010641C0A2CF6DB7C
:10138000002407E04FF47A71E24A04F1640022F885
:101390001010A41C0A2CF5DB002406E00021DD4A15
:1013A00004F1650022F81010A41C0A2CF6DB44B0EE
:1013B00010BD0146B1F5964F1FD00CDCB1F5966F0C
:1013C00013D0B1F5166F12D0B1F5965F11D0B1F50B
:1013D000165F1AD10FE0B1F5164F10D0B1F5614F7D
:1013E0000FD0B1F5E13F10D10DE000207047012092
:1013F000FCE70220FAE70320F8E70420F6E70520DF
:10140000F4E70620F2E70720F0E70320EEE70146C5
:1014100021B1012904D0022906D103E00020704740
:101420000120FCE70220FAE70020F8E72DE9F05F51
:1014300081460C464FF0000AB9F80000002807DD8D
:10144000B9F80000FF2803DAB9F80000208002E0B4
:101450002088A9F80000B9F80200082825D2DFE8A2
:1014600000F004080C1014181C204FF49660606003
:1014700021E04FF4166060601DE04FF4965060600C
:1014800019E04FF41650606015E04FF4964060602C
:1014900011E04FF4164060600DE04FF46140606071
:1014A00009E04FF4E130606005E06068FFF781FF1C
:1014B000A9F8020000BF00BFB9F8040020B101285C
:1014C00005D0022809D105E0002020720BE00120A0
:1014D000207208E00220207205E0207AFFF797FFD3
:1014E000A9F8040000BF00BFB9F8060020B1012828
:1014F00005D0022809D105E00020608109E0012023
:10150000608106E00220608103E06089A9F806009E
:1015100000BF00BFB9F8080020B1012805D002289B
:1015200009D105E00020A08109E00120A08106E0AA
:101530000220A08103E0A089A9F8080000BF00BF35
:10154000B9F80A00E081B9F80C0010B1012806D101
:1015500002E00020208206E00120208203E0208AB1
:10156000A9F80C0000BF00BFB9F80E0010B10128A7
:1015700006D102E00020608206E00120608203E0E4
:10158000608AA9F80E0000BF00BFB9F8100010B1C2
:10159000012806D102E00020A08206E00120A082FE
:1015A00003E0A08AA9F8100000BF00BF4FF0000AB6
:1015B00017E00AF1090139F8111008B20AF0EEFE3D
:1015C00083460AF01FFD07460022534B0AF026F916
:1015D00005460AF03DF804F1180141F82A000AF125
:1015E000010ABAF1040FE4DB4FF0000A17E00AF138
:1015F0000D0139F8111008B20AF0D0FE83460AF046
:1016000001FD07460022444B0AF008F905460AF09E
:101610001FF804F1280141F82A000AF1010ABAF181
:10162000040FE4DB4FF0000A17E00AF1110139F86A
:10163000111008B20AF0B2FE83460AF0E3FC074636
:101640000022354B0AF0EAF805460AF001F804F1E9
:10165000380141F82A000AF1010ABAF1020FE4DB6D
:101660004FF0000A17E00AF1640139F8111008B2CE
:101670000AF094FE83460AF0C5FC07460022274B79
:101680000AF0CCF8054609F0E3FF04F1400141F807
:101690002A000AF1010ABAF1040FE4DB4FF0000A54
:1016A00017E00AF1680139F8111008B20AF076FE65
:1016B00083460AF0A7FC07460022184B0AF0AEF852
:1016C000054609F0C5FF04F1500141F82A000AF16E
:1016D000010ABAF1040FE4DB4FF0000A17E00AF147
:1016E0006C0139F8111008B20AF058FE83460AF06E
:1016F00089FC07460022094B0AF090F8054609F0DC
:10170000A7FF04F1600141F82A000AF1010A07E08D
:1017100000000108BE0100200000244000408F406E
:10172000BAF1020FDBDBBDE8F09F10B5FFF7ECFD6F
:10173000F749F848FFF77AFE10BD00B5C3B04FF483
:10174000847101A809F068FEF34800680090F04930
:10175000F048FFF76BFE4FF48472EE4901A809F0E0
:10176000F4FD4FF486726946EC48FEF77AFE43B00A
:1017700000BD10B50446207810B101280AD104E05C
:1017800005F09CFAFFF773F805E0FFF7D6FFFEF7C8
:101790000AFE00E000BF00BF0020207010BD2DE950
:1017A000F04105460E460024002700BF06E055F82C
:1017B000241038460AF052FC0746641C20460AF002
:1017C000EDFD804631460AF015FEF0D3314638462D
:1017D0000AF0B2FCBDE8F08170B504460D4616462D
:1017E000012C04D0022C7DD0032C7CD1FCE0C84815
:1017F000816928460AF0FEFE18D2C5498869002191
:101800000AF05CFD12D04FF49671642000F0A6FB44
:101810000121084601F0BAFB0121084601F0E2FB74
:10182000BB49887A0222012101F0A6FAB848C169B1
:1018300028460AF0DFFD18D2B549C86900210AF030
:101840003DFD12D04FF49671642000F087FB01211A
:10185000084601F09BFB0221012001F0C3FBAC49CB
:10186000887A0122022101F087FAA948016A3046EC
:101870000AF0C0FE18D2A649086A00210AF01EFD2F
:1018800012D04FF49671642000F068FB0121022011
:1018900001F07CFB0121022001F0A4FB9C49887A25
:1018A0000222012101F068FA9948416A30460AF0A3
:1018B000A1FD1BD29649486A00210AF0FFFC15D011
:1018C0004FF49671642000F049FB0121022001F0E1
:1018D0005DFB0221084601F085FB8D49887A0122D3
:1018E000022101E003E0BEE001F046FABCE08848D6
:1018F000816A28460AF07EFE18D28549886A00214E
:101900000AF0DCFC12D04FF49671642000F026FB44
:101910000121084601F03AFB0121084601F062FB73
:101920007B49887A0222012101F026FA7848C16AAF
:1019300028460AF05FFD18D27549C86A00210AF0EE
:10194000BDFC12D04FF49671642000F007FB01211A
:10195000084601F01BFB0221012001F043FB6C490A
:10196000887A0122022101F007FA6948016B3046AA
:101970000AF040FE18D26649086B00210AF09EFC6E
:1019800012D04FF49671642000F0E8FA0121022091
:1019900001F0FCFA0121022001F024FB5C49887A65
:1019A0000222012101F0E8F95948416B30460AF062
:1019B00021FD18D25649486B00210AF07FFC12D055
:1019C0004FF49671642000F0C9FA0121022001F061
:1019D000DDFA0221084601F005FB4D49887A012213
:1019E000022101F0C9F93FE04948816B28460AF01D
:1019F00001FE18D24649886B00210AF05FFC12D024
:101A00004FF49671642000F0A9FA0121084601F014
:101A1000BDFA0121084601F0E5FA3D49887A022223
:101A2000012101F0A9F93A48C16B28460AF0E2FC0D
:101A300018D23749C86B00210AF040FC12D04FF48D
:101A40009671642000F08AFA0121084601F09EFA9E
:101A50000221012001F0C6FA2D49887A01220221D3
:101A600001F08AF900E000BF00BF70BD2DE9FC471E
:101A7000824605209AFBF0F100FB11A0D0B928485E
:101A80000078401C264908700021012001F07EFAF0
:101A90000021022001F07AFA0021012001F0A2FACF
:101AA0000021022001F09EFA1949887A002211468D
:101AB00001F062F91A48007820B1012861D00228AB
:101AC0007DD1AFE01248008A28B915480078401C43
:101AD0001349087054E0012002F0B6FE01210320F2
:101AE00000F01CFE0F4988680F490AF083FC05D3FB
:101AF0000C4988680D490AF07DFD19D2032000F0D9
:101B00007FFC002001F038FB002001F03FFB36E0B5
:101B100054030020BE01002044C700080000010853
:101B20001800002000040020000048C200001643F6
:101B3000AB4A116CAB4A90680AF090FC0446A84886
:101B4000416C20460AF08AFAA6498860A44A916C42
:101B5000A44A10680AF082FC0446A148C16C2046E1
:101B60000AF07CFA9F4908600A461168906800F004
:101B700025FA9C48026881680120FFF72DFEC9E024
:101B800000BF9748408A28B997480078401C96497A
:101B9000087046E0022002F057FE0221032000F008
:101BA000BDFD9049C86891490AF024FC05D38D49D0
:101BB000C8688F490AF01EFD0BD2032000E0A5E0A3
:101BC00000F01EFC002001F0D7FA002001F0DEFA40
:101BD00026E0834A116D834AD0680AF03FFC044630
:101BE0007F48416D20460AF039FA7E49C8607C4A38
:101BF000916D7C4A50680AF031FC04467848C16D0A
:101C000020460AF02BFA774948600A465168D068A6
:101C100000F0D4F973484268C1680220FFF7DCFD88
:101C200078E000BF6E48808A28B96F480078401C71
:101C30006D49087069E0012004F0D4FF6D4A03C2C9
:101C40000321012000F06AFD6A4800226A4BD0E9B6
:101C50000041204609F07CFF08D36649D1E90041E4
:101C60000022664B20460AF0ADF809D2032000F0AE
:101C7000C7FB002001F080FA002001F087FA31E074
:101C80005749486E0AF0BEF9804689465449086EA5
:101C90000AF0B8F904465748D0E9006332462046B6
:101CA00009F092FF42464B46CDE9000109F002FDE2
:101CB000504A03C24F48D0E90021104609F0C8FC41
:101CC000044648484168204600F078F94948D0E980
:101CD0000021104609F0BCFC0446002221460320E6
:101CE000FFF77AFD112001F054FC112001F093FC64
:101CF000112001F0D2FC002001F048FA112001F07F
:101D00000EFD002001F0E1F904E000BF002036499B
:101D1000087000BF00BFBDE8FC870FB42DE9F0419B
:101D20000446374909980AF099FB05460AF0FAFA81
:101D30002080334907980AF091FB05460AF0F2FA31
:101D400060802F490A980AF089FB05460AF0EAFAF2
:101D5000A0802B4908980AF081FB05460AF0E2FAB8
:101D6000E0800022274BDDE90E51284609F02CFFC8
:101D7000074609F0ABFE2081BDE8F0015DF814FBD9
:101D800010B51748C08950B31F480068401C1E4951
:101D900008601348C089C0EB00100968B1EB800FE0
:101DA0001DDD0020184908604FF47A70FEF7D6FB5D
:101DB0004FF47A70FEF7D2FB4FF47A70FEF7CEFB49
:101DC00001F0D3F80023642210A111A004F0CFFF8A
:101DD00000214FF4FE7006F01FF8FEF7DBFB10BD8C
:101DE000540300200004002018000020000048C216
:101DF0000000164370000020000049C000C062408F
:101E000000002041000024401C0000204F4B000037
:101E100041542B47534C503D3100000000B58BB06E
:101E20004A4808F04FF84A4800904A48019000207C
:101E30000290022003900020049080200590400032
:101E40000690800007902020089000020990002052
:101E50000A9069463D4808F0D7F801213B4808F050
:101E6000FEF80BB000BD00B587B08020ADF81800BB
:101E700003208DF81A0000208DF81B0006A93648B3
:101E800005F0F4FCFFF7CAFF0020019001208DF857
:101E900008004FF4602003900020049001208DF88A
:101EA000140001A92A484C3807F0A7F94FF4004064
:101EB00005F0FCFE05230122072125484C3807F0D8
:101EC00034FA012122484C3807F0CEF9012120488C
:101ED0004C3807F0BEF91E484C3807F0DCF900BF5B
:101EE0001B484C3807F0DCF90028F9D118484C3869
:101EF00007F0E0F900BF16484C3807F0E0F9002879
:101F0000F9D1012112484C3807F0E3F907B000BDC0
:101F100010B5FFF783FFFFF7A6FF10BD70B50546AC
:101F20000026002407E00B4800EB440030F81500C1
:101F30000644601CC4B2022CF5DB710840F6E44292
:101F40005143080B0AF042FA70BD0000080002403D
:101F50004C2401402C0000200008014070B50446CC
:101F60000D46002600BF0EE04FF4005012490861F4
:101F70002846FEF7D8FA4FF400500F49486128462A
:101F8000FEF7D1FA761CA642EEDB70BD08B54FF421
:101F90000050ADF8000003208DF8020010208DF8ED
:101FA00003006946044805F061FC4FF49671642013
:101FB000FFF7D4FF08BD0000001001402DE9FF5FCE
:101FC00083460F46FD4958460AF048FA01900AF048
:101FD00019F821F00041CDE9020109F077FD05462D
:101FE000F64938460AF03AFA01900AF00BF821F067
:101FF0000041CDE9020109F069FD064658460AF0A4
:1020000001F800221346CDE9020109F0A1FD04D236
:102010000121084600F0D0FF03E00021012000F07C
:10202000CBFF4FF47A7095FBF0F0C4B204B91024E2
:102030004FF47A7095FBF0F100FB1150642190FB96
:10204000F1F000F0FF0A4FF47A7095FBF0F100FB1D
:102050001150642190FBF1F201FB12000A2190FB68
:10206000F1F000F0FF094FF47A7095FBF0F100FBFE
:102070001150642190FBF1F201FB12000A2190FB48
:10208000F1F201FB120000F0FF08204601F074F9A4
:10209000504601F0B3F9484601F0F2F9012001F091
:1020A0006BF8404601F02EFA032000F0C0FF4FF419
:1020B0007A7096FBF0F0C4B204B910244FF47A7031
:1020C00096FBF0F100FB1160642190FBF1F000F051
:1020D000FF0A4FF47A7096FBF0F100FB1160642167
:1020E00090FBF1F201FB12000A2190FBF1F000F0ED
:1020F000FF094FF47A7096FBF0F100FB1160642148
:1021000090FBF1F201FB12000A2190FBF1F201FBBE
:10211000120000F0FF08204601F03BFA504601F0A3
:102120007AFA484601F0B9FA012001F02FF840464A
:1021300001F0F5FA012000F0C8FFBDE8FF9F37B5B8
:10214000012001F001FF012001F008FF012002F051
:1021500077F89DF804000A2190FBF1F0C4B2204604
:1021600001F0C5FE9DF804000A2190FBF1F201FB8D
:102170001200C4B2204601F0EFFD9DF805000A21CF
:1021800090FBF1F0C4B2204601F02DFE9DF8050051
:102190000A2190FBF1F201FB1200C4B2204601F0CB
:1021A00064FE9DF806000A2190FBF1F0C4B22046BF
:1021B00001F0F7FA9DF806000A2190FBF1F201FB0D
:1021C0001200C4B2204601F02EFB9DF807000A2140
:1021D00090FBF1F0C4B2204601F067FB9DF80700C8
:1021E0000A2190FBF1F201FB1200C4B2204601F07B
:1021F0009EFB9DF808000A2190FBF1F0C4B2204636
:1022000001F060FC9DF808000A2190FBF1F201FB4F
:102210001200C4B2204601F097FC032001F0EEFF4B
:102220003EBD2DE9F0470446204609F0EBFE074687
:102230000022634B09F0F2FA054609F009FA8146DB
:10224000484609F0DFFE05465E4A5F4B09F0BAFDDD
:1022500001D8DFF87891484609F0D4FE05464FF0E2
:1022600066325B4B09F074FC01D8DFF868911021ED
:10227000594805F08EFB80B958480078052802DDE2
:102280000220564908705548007801F037FF53483E
:102290000078401C5149087067E0484609F0B2FEDA
:1022A00005464FF066324A4B09F052FC1BD84FF4FA
:1022B0007A70FEF753F94FF47A70FEF74FF94FF446
:1022C0007A70FEF74BF900F050FE0023642244A11F
:1022D00044A004F04CFD00214FF4FE7005F09CFD7D
:1022E000FEF758F941E0484609F08CFE05464FF0EC
:1022F00033323F4B09F02CFC03D8012001F0FEFEE5
:1023000033E0484609F07EFE05462E4A394B09F077
:102310001FFC03D8022001F0F1FE26E0484609F038
:1023200071FE05464FF06632334B09F011FC03D8BD
:10233000032001F0E3FE18E0484609F063FE05467D
:1023400000222E4B09F004FC03D8042001F0D6FE35
:102350000BE0484609F056FE05461A4A1A4B09F0AA
:10236000F7FB02D8052001F0C9FEBDE8F08770B583
:102370000446012001F006FE642094FBF0F0C5B293
:10238000284601F023FC642094FBF0F100FB11408F
:102390000A2190FBF1F0C5B2284601F059FC6420F7
:1023A00094FBF0F100FB11400A2190FBF1F201FBDC
:1023B0001200C5B2284601F08DFC70BD000020411E
:1023C00000408F40CDCCCCCCCCCC10406666864053
:1023D00066660A403333534000100140300000204D
:1023E0004F4B000041542B47534C503D31000000EF
:1023F00033330B40CCCC0C4066660E4000001040DE
:1024000010B50446032C00DD0024112000F0B4FFB9
:10241000112000F0F3FF112001F032F8112001F03B
:1024200071F8112001F0B5F8112001F0F4F8112035
:1024300001F033F9112001F072F934B1012C2ED0E2
:10244000022C5AD0032C29D185E0EC48007D20F0E5
:102450000200EA4908750846807D20F00200887570
:102460000846407E20F0020048760846C07E20F0F4
:102470000200C8760846007D20F020000875084656
:10248000807D20F0200088750846407E20F02000E6
:1024900048760846C07E20F02000C8768DE0D748F8
:1024A000007D20F00200801CD44908750846807D1C
:1024B00020F00200801C88750846407E20F0020053
:1024C000801C48760846C07E20F00200801CC8763A
:1024D0000846007D20F0200008750846807D20F029
:1024E000200088750846407E20F020004876084687
:1024F000C07E20F02000C8765FE0C048007D20F05C
:102500000200BE4908750846807D20F002008875EB
:102510000846407E20F0020048760846C07E20F043
:102520000200C8760846007D20F0200020300875A3
:102530000846807D20F02000203088750846407EC7
:1025400020F02000203048760846C07E20F0200091
:102550002030C87631E0A948007D20F00200801CC0
:10256000A64908750846807D20F00200801C887509
:102570000846407E20F00200801C48760846C07E57
:1025800020F00200801CC8760846007D20F0200064
:10259000203008750846807D20F0200020308875A6
:1025A0000846407E20F02000203048760846C07E55
:1025B00020F020002030C87600BF00BF10BD2DE9FC
:1025C000F05F8F4800F051FA8D4807C8FFF7B7FD5C
:1025D0000320FFF715FF00208A4988600860C86063
:1025E0004860894A106050608848008A01281DD1DF
:1025F00002F02AF9854A116C824A906809F02EFF90
:1026000004468248416C204609F028FD7D498860D7
:102610007E4A916C7B4A106809F020FF04467B4893
:10262000C16C204609F01AFD764908607748408A57
:1026300001281ED1022002F007F9744A116D714A77
:10264000D06809F00BFF04467048416D204609F040
:1026500005FD6C49C8606D4A916D6A4A506809F081
:10266000FDFE04466948C16D204609F0F7FC654946
:1026700048606648808A01281CD104F0B3FA624A97
:1026800003C26249486E09F0BDFC04460D465F492D
:10269000086E09F0B7FC80465B48D0E9006332461B
:1026A000404609F091FA824622462B4609F002F88C
:1026B000554A03C20020FFF731FC0446544909F093
:1026C000CDFE544908600868FFF7ABFD4F49087814
:1026D000FFF74DFEBDE8F09F70B50446632C13DC98
:1026E000012001F045FC0A2094FBF0F0C5B2284619
:1026F00001F064F90A2094FBF0F100FB1140C5B22F
:10270000284601F09DF908E0002001F031FC10207E
:1027100001F054F9102001F093F970BD70B5054631
:102720000C46012D04D0022D09D0032D15D10DE04A
:10273000204600F09DFD112000F0DCFD0DE0112091
:1027400000F096FD204600F0D5FD06E0204600F0A2
:102750008FFD204600F0CEFD00BF00BF70BD00B56C
:102760008DB02D480068401C2B4908600846006861
:1027700032281FDD002008602849087801F089FC14
:102780000E221E491031684608F0DFFD1E221B494B
:1027900005A808F0DAFD05A80FC800F0ECFB1F48FB
:1027A0000068401C1D49086008460068052801DDD6
:1027B000012008600DB000BD10B5194840681949E6
:1027C000081A022803D20120174908700FE01448A4
:1027D00040681449081AB0F57A7F05D2124800788B
:1027E000C0431149087002E000200F4908700E49EB
:1027F000097801F0010001F0CFFB10BDE0030020DB
:10280000C8030020000400207000002054030020B2
:102810000000404028000020340000203800002044
:10282000240600207F1A06003C0000202DE9F0411C
:1028300007460D461646002400F0B4F9D02000F0FB
:1028400040FA00F017FA384600F03BFA00F012FAAE
:1028500000BF05E0285D00F034FA00F00BFA641CBC
:10286000B442F7DB00F0B8F9BDE8F0812DE9F041A2
:1028700007460C461546002600F094F9D02000F0DB
:1028800020FA00F0F7F9384600F01BFA00F0F2F9F0
:1028900000F0A2F900F086F9D12000F012FA00F061
:1028A000E9F900BF04E0012000F038FAA055761CD9
:1028B000681EB042F7DC002000F030FA691E605458
:1028C00000F08AF9BDE8F08170B506460C46154661
:1028D0009948C07966F386109749C8710846C0794F
:1028E00064F34510C8710846C07965F30400C871E7
:1028F0000122C91D0720FFF799FF70BD70B506467C
:102900000C4615468C48007A66F307108A4908720F
:102910000846007A64F3830008720846007A65F37B
:1029200001000872012208310820FFF77FFF70BD07
:102930002DE9F04704460D4616461F46DDE9099A83
:10294000DDF820800A2099FBF0F100FB11907A4914
:10295000097860F30301784801700A2099FBF0F0D0
:102960007549097860F3061173480170007820F00A
:102970008000714908700A2098FBF0F100FB11807B
:102980006D49497860F303016B4841700A2098FB58
:10299000F0F06949497860F30611674841700A20F0
:1029A00097FBF0F100FB11706349897860F3030134
:1029B000614881700A2097FBF0F05F49897860F3E5
:1029C00005115D488170807820F040005A49887078
:1029D0000846807820F0800088700846C0786AF346
:1029E0000200C8700A2096FBF0F100FB116052490A
:1029F000097960F30301504801710A2096FBF0F059
:102A00004D49097960F305114B4801710A2095FB86
:102A1000F0F100FB11504849497960F30301464841
:102A200041710A2095FBF0F04349497960F30411A4
:102A3000414841710A2094FBF0F100FB11403E49EE
:102A4000897960F303013C4881710A2094FBF0F01E
:102A50003949897960F307113748817108220146A5
:102A60000020FFF7E3FEBDE8F08710B5044608221A
:102A700031490020FFF7FAFE2F48807900F00F005F
:102A80002D498979090901EB810100EB410000F52D
:102A9000FA6020602848407900F00F002649497903
:102AA000C1F3001101EB810100EB410020712248CC
:102AB000007900F00F0020490979C1F3011101EB01
:102AC000810100EB410060711B48807800F00F002D
:102AD00019498978C1F3011101EB810100EB410033
:102AE000A0711548407800F00F0013494978C1F3F0
:102AF000021101EB810100EB4100E0710E4800780A
:102B000000F00F000C490978C1F3021101EB8101BB
:102B100000EB410020720848C07800F007006072A6
:102B200010BD10B5022201210A20FFF7E7FE03487D
:102B3000FFF79BFF10BD0000BC030020C80300206E
:102B400008B5C020ADF8000003208DF80200102069
:102B50008DF803006946874804F088FE40218548C7
:102B600004F031FF8021834804F02DFF08BD08B533
:102B70008020ADF8000003208DF8020010208DF8B1
:102B8000030069467B4804F071FE08BD08B580204B
:102B9000ADF8000048208DF803006946754804F040
:102BA00065FE08BD10B5FFF7E2FF8021714804F013
:102BB0000AFF40216F4804F006FF0320FDF7B3FC35
:102BC00080216C4804F001FF0320FDF7ACFC40219C
:102BD000684804F0FAFE10BD10B5FFF7C8FF4021A9
:102BE000644804F0F2FE8021624804F0EEFE4021C9
:102BF000604804F0E8FE0320FDF795FC80215D4865
:102C000004F0E1FE0320FDF78EFC10BD10B540215D
:102C1000584804F0DAFEFFF7AAFF8021554804F077
:102C2000D4FE0320FDF77FFC4021524804F0CBFE88
:102C30000320FDF778FC40214E4804F0C6FE10BD8D
:102C400010B540214B4804F0C0FEFFF790FF8021F3
:102C5000484804F0B8FE0320FDF765FC40214548D4
:102C600004F0B1FE0320FDF75EFC4021414804F072
:102C7000ACFE10BD10B50024FFF788FF80213D4851
:102C800004F0A1FE0320FDF74EFC4021394804F07A
:102C90009AFE0320FDF747FC07E0601CC4B2FA2C43
:102CA00003DDFFF799FF012010BD8021314804F0BA
:102CB00070FE0028F1D140212E4804F086FE00204D
:102CC000F2E770B504460025FFF751FF402129487F
:102CD00004F07BFE00BF1EE004F08000002804DD4D
:102CE0008021244804F06FFE03E08021214804F095
:102CF0006CFE6006040E40211E4804F064FE0320B2
:102D0000FDF711FC40211B4804F05FFE0320FDF796
:102D10000AFC681CC5B2082DDEDB70BD70B5054627
:102D200000260024FFF732FF00BF18E040211148C1
:102D300004F04BFE0320FDF7F6FB40210D4804F0A4
:102D400042FE6006040E80210A4804F022FE08B10B
:102D5000601CC4B20320FDF7E6FB701CC6B2082E4F
:102D6000E4DB15B9FFF76CFF01E0FFF74FFF2046EA
:102D700070BD0000000C014010B520B1012809D041
:102D800002282ED126E00123F74C63615B02F74C49
:102D9000236027E011B101290BD104E04FF4007347
:102DA000F24C236006E04FF40073F04C241F2360C4
:102DB00000E000BF00BF12B1012A08D103E00123E7
:102DC000E94C636104E00123E74C236100E000BFAC
:102DD00000BF07E00123E44C23615B02E34C236066
:102DE00000E000BF00BF10BD08B50120ADF8000035
:102DF00003208DF8020010208DF803006946DA48A0
:102E000004F034FD4FF40070ADF8000003208DF89D
:102E1000020010208DF803006946D448143804F0ED
:102E200025FDD349887A00221146FFF7A5FF08BD8A
:102E300070B505460C4601F042FA7C2001F0E2FA3A
:102E400001F0B5FA284601F0DDFA01F0B0FA2046AB
:102E500001F0D8FA01F0ABFA01F04FFA70BD2DE99C
:102E6000F04180460F4614461D46002601F027FA21
:102E70007C2001F0C7FA01F09AFA404601F0C2FA4C
:102E800001F095FA384601F0BDFA01F090FA01F030
:102E900034FA01F014FA7D2001F0B4FA01F087FA57
:102EA00000BF04E0012001F0DFFAA055761C681E87
:102EB000B042F7DC002001F0D7FA691E605401F03F
:102EC0001CFABDE8F0812DE9F04180460D4616461A
:102ED0001F46002401F0F3F97C2001F093FA01F081
:102EE00066FA404601F08EFA01F061FA284601F0D8
:102EF00089FA01F05CFA00BF05E0305D01F082FA6A
:102F000001F055FA641CBC42F7DB01F0F6F9BDE8AC
:102F1000F08100B58DB002218220FFF789FF0021EA
:102F20008620FFF785FF30218A20FFF781FF0021EF
:102F30008820FFF77DFF03218420FFF779FF3421EC
:102F4000684608F069FA33236A4600218020FFF7BB
:102F5000BAFF1E21874808F03DFA1E23854A00214A
:102F60008020FFF7B0FF0DB000BD10B50021842018
:102F7000FFF75EFF10BD0FB410B51E2302AA00219B
:102F80008020FFF7A0FF10BC5DF814FB012802D0E1
:102F900002280ED106E0774AD27C61F30002754B1D
:102FA000DA7407E0734AD27C61F30412714BDA746D
:102FB00000E000BF00BF7047012802D002280ED1F8
:102FC00006E06C4AD27C61F3C3026A4BDA7407E014
:102FD000684AD27C61F3C712664BDA7400E000BF26
:102FE00000BF7047032900DD0021012802D002281C
:102FF0001AD10CE05F4AD27C61F341025D4BDA7476
:103000004A08DB7C62F382035A4AD3740DE0594AC2
:10301000D27C61F34512574BDA744A08DB7C62F3C9
:103020008613544AD37400E000BF00BF70470328E2
:1030300000DD00204F49097F60F3C3014D4A11773D
:103040004108527F61F3C7124A494A777047032803
:1030500000DD00204749497F60F30001454A517770
:103060004108527F61F3410242494A777047032881
:1030700000DD00203F49497F60F3C3013D4A51779D
:103080004108527F61F382023A494A77704701282A
:1030900000DD00203749497F60F30411354A51773C
:1030A0007047012800DD00203249497F60F3451157
:1030B000304A51777047012800DD00202D49097FF3
:1030C00060F3C7112B4A11777047012800DD0020FB
:1030D0002849C97D60F3C301264AD175704703288A
:1030E00000DD00202349497F60F38611214A517792
:1030F0004108127861F3C3021E490A707047032821
:1031000000DD00201B49097860F3C711194A1170CE
:103110004108127961F3000216490A7170470328C9
:1031200000DD00201349497C60F3C711114A517436
:103130004108927C61F3C7120E498A7470470128D6
:1031400000DD00200B49C97B60F3C711094AD17328
:103150007047012800DD00200649C97D60F3C711D2
:10316000044AD1757047000000100140140C014062
:1031700054030020E0030020012800DD0020FE4968
:10318000897E60F3C301FC4A91767047012800DD17
:103190000020F949897E60F3C711F74A917670479C
:1031A000012800DD0020F449497D60F3C711F24A8F
:1031B00051757047012800DD002010B101281AD197
:1031C0000BE0ED49097E21F00101EB4A1176114631
:1031D000097E21F00401117619E0E749097E21F00A
:1031E0000101491CE44A11761146097E21F00401CF
:1031F000091D11760BE0E049097E21F00101DE4A4C
:1032000011761146097E21F00401117600BF00BF3E
:103210007047012800DD002010B101281AD10BE011
:10322000D549097E21F01001D34A11761146097E55
:1032300021F04001117619E0CF49097E21F01001FB
:103240001031CD4A11761146097E21F040014031FE
:1032500011760BE0C849097E21F01001C64A1176AB
:103260001146097E21F04001117600BF00BF704772
:103270000F2800DD1020C149095CBF4A127861F3B4
:103280000002BD490A70BD49095C4908BA4A127872
:1032900061F34102B8490A70B849095C8908B64A25
:1032A000127861F38202B4490A70B449095CC90812
:1032B000B14A527861F3C302AF494A70AF49095C21
:1032C0000909AD4A527861F38202AB494A70AB49B1
:1032D000095C4909A84A527861F30002A6494A707C
:1032E000A649095C8909A44A527861F34102A249BE
:1032F0004A7070470F2800DD1020A049095C9E4AE3
:10330000127861F304129C490A709C49095C4908CF
:10331000994A127861F3451297490A709749095CF6
:103320008908954A127861F3861293490A70934985
:10333000095CC908904A527861F3C7128E494A70F5
:103340008E49095C09098C4A527861F386128A49D0
:103350004A708A49095C4909874A527861F3041224
:1033600085494A708549095C8909834A527861F325
:10337000451281494A7070470F2800DD10207F49AF
:10338000095C7D4A527D61F300027B494A757B49A5
:10339000095C4908784A527D61F3410276494A75D1
:1033A0007649095C8908744A527D61F38202724948
:1033B0004A757249095CC9086F4A127D61F3C302FC
:1033C0006D490A756D49095C09096B4A127D61F303
:1033D000820269490A756949095C4909664A127D90
:1033E00061F3000264490A756449095C8909624A0B
:1033F000127D61F3410260490A7570470F2800DDB4
:1034000010205E49095C5C4AD27D61F300025A4992
:10341000CA755A49095C4908574AD27D61F341028D
:103420005549CA755549095C8908534AD27D61F3EB
:1034300082025149CA755149095CC9084E4A927DB8
:1034400061F3C3024C498A754C49095C09094A4A2F
:10345000927D61F3820248498A754849095C4909AD
:10346000454A927D61F3000243498A754349095CEC
:103470008909414A927D61F341023F498A7570474B
:103480000F2800DD10203D49095C3B4A927E61F324
:10349000000239498A763949095C4908364A927EE0
:1034A00061F3410234498A763449095C8908324A19
:1034B000927E61F3820230498A763049095CC908FC
:1034C0002D4A527E61F3C3022B494A762B49095C8F
:1034D0000909294A527E61F3820227494A7627491F
:1034E000095C4909244A527E61F3000222494A7666
:1034F0002249095C8909204A527E61F341021E4932
:103500004A7670470F2800DD10201C49095C1A4AD2
:10351000127F61F3000218490A771849095C4908CB
:10352000154A127F61F3410213490A771349095C76
:103530008908114A127F61F382020F490A770F4905
:10354000095CC9080C4AD27E61F3C3020A49CA76F3
:103550000A49095C0909084AD27E61F382020649D8
:10356000CA760649095C4909034AD27E61F3000222
:103570000149CA76014903E0E00300203D00002034
:10358000095C8909FE4AD27E61F34102FC49CA7690
:1035900070470F2800DD1020FA49095CF84A527D77
:1035A00061F30412F6494A75F649095C4908F44A80
:1035B000527D61F34512F2494A75F249095C890866
:1035C000EF4A527D61F38612ED494A75ED49095C77
:1035D000C908EB4A127D61F3C712E9490A75E94946
:1035E000095C0909E64A127D61F38612E4490A750D
:1035F000E449095C4909E24A127D61F30412E04999
:103600000A75E049095C8909DD4A127D61F34512BA
:10361000DB490A7570470F2800DD1020D949095C85
:10362000D74AD27D61F30412D549CA75D549095CE0
:103630004908D34AD27D61F34512D149CA75D149AF
:10364000095C8908CE4AD27D61F38612CC49CA75DD
:10365000CC49095CC908CA4A927D61F3C712C849BE
:103660008A75C849095C0909C54A927D61F38612C9
:10367000C3498A75C349095C4909C14A927D61F30E
:103680000412BF498A75BF49095C8909BC4A927D09
:1036900061F34512BA498A7570470F2800DD102082
:1036A000B849095CB64A927E61F30412B4498A763D
:1036B000B449095C4908B24A927E61F34512B049A7
:1036C0008A76B049095C8908AD4A927E61F3861218
:1036D000AB498A76AB49095CC908A94A527E61F3B5
:1036E000C712A7494A76A749095C0909A44A527E2C
:1036F00061F38612A2494A76A249095C4909A04AA7
:10370000527E61F304129E494A769E49095C8909FA
:103710009B4A527E61F3451299494A7670470F28B9
:1037200000DD10209749095C954A127F61F304126D
:1037300093490A779349095C4908914A127F61F3DA
:1037400045128F490A778F49095C89088C4A127F94
:1037500061F386128A490A778A49095CC908884A4E
:10376000D27E61F3C7128649CA768649095C090987
:10377000834AD27E61F386128149CA768149095C07
:1037800049097F4AD27E61F304127D49CA767D4998
:10379000095C89097A4AD27E61F345127849CA7672
:1037A00070470F2800DD10207649095C744AD27BEF
:1037B00061F386127249CA737249095C4908704AFA
:1037C000D27B61F304126E49CA736E49095C8908A1
:1037D0006B4AD27B61F341026949CA736949095C4A
:1037E000C908674AD27B61F300026549CA7365491B
:1037F000095C0909624AD27B61F382026049CA739B
:103800006049095C49095E4AD27B61F345125C4913
:10381000CA735C49095C8909594AD27B61F3C302C6
:103820005749CA7370470F2800DD10205549095CBD
:10383000534A127C61F3861251490A745149095C5A
:1038400049084F4A127C61F304124D490A744D49EC
:10385000095C89084A4A127C61F3410248490A74AA
:103860004849095CC908464A127C61F30002444990
:103870000A744449095C0909414A127C61F38202D5
:103880003F490A743F49095C49093D4A127C61F38A
:1038900045123B490A743B49095C8909384A127C44
:1038A00061F3C30236490A7470470F2800DD102007
:1038B0003449095C324A527C61F3861230494A74B9
:1038C0003049095C49082E4A527C61F304122C49A4
:1038D0004A742C49095C8908294A527C61F34102E7
:1038E00027494A742749095CC908254A527C61F373
:1038F000000223494A742349095C0909204A527C81
:1039000061F382021E494A741E49095C49091C4A36
:10391000527C61F345121A494A741A49095C8909B3
:10392000174A527C61F3C30215494A7470470F2845
:1039300000DD10201349095C114A927C61F3861264
:103940000F498A740F49095C49080D4A927C61F35A
:1039500004120B498A740B49095C8908084A927C55
:1039600061F3410206498A740649095CC908044AA0
:10397000927C61F3000202498A740249095C03E007
:10398000E00300203D0000200909FE4A927C61F31B
:103990008202FC498A74FC49095C4909F94A927C13
:1039A00061F34512F7498A74F749095C8909F54AB8
:1039B000927C61F3C302F3498A7470470F2800DDDB
:1039C0001020F149095CEF4A927961F3C712ED4981
:1039D0008A71ED49095C4908EA4A927961F38612D5
:1039E000E8498A71E849095C8908E64A927961F3F5
:1039F0004512E4498A71E449095CC908E14A9279AF
:103A000061F30412DF498A71DF49095C0909DD4A63
:103A1000527961F30412DB494A71DB49095C4909B7
:103A2000D84A527961F38612D6494A71D649095C5F
:103A30008909D44A527961F34512D2494A717047D3
:103A40000F2800DD1020D049095CCE4A127A61F3BC
:103A5000C712CC490A72CC49095C4908C94A127A92
:103A600061F38612C7490A72C749095C8908C54AC9
:103A7000127A61F34512C3490A72C349095CC90845
:103A8000C04A127A61F30412BE490A72BE49095C47
:103A90000909BC4AD27961F30412BA49CA71BA4918
:103AA000095C4909B74AD27961F38612B549CA71EE
:103AB000B549095C8909B34AD27961F34512B14924
:103AC000CA7170470F2800DD1020AF49095CAD4A6C
:103AD000927A61F3C712AB498A72AB49095C490813
:103AE000A84A927A61F38612A6498A72A649095CAD
:103AF0008908A44A927A61F34512A2498A72A249BE
:103B0000095CC9089F4A927A61F304129D498A723E
:103B10009D49095C09099B4A527A61F3041299494B
:103B20004A729949095C4909964A527A61F38612A8
:103B300094494A729449095C8909924A527A61F31C
:103B4000451290494A7270470F2800DD10208E49B7
:103B5000095C8C4A127B61F3C7128A490A738A494D
:103B6000095C4908874A127B61F3861285490A730A
:103B70008549095C8908834A127B61F345128149B2
:103B80000A738149095CC9087E4A127B61F30412F9
:103B90007C490A737C49095C09097A4AD27A61F343
:103BA00004127849CA727849095C4909754AD27A7F
:103BB00061F386127349CA727349095C8909714AB3
:103BC000D27A61F345126F49CA7270470F2800DD3F
:103BD00010206D49095C6B4A927961F3C30269490F
:103BE0008A716949095C4908664A927961F38202DF
:103BF00064498A716449095C8908624A927961F36F
:103C0000410260498A716049095CC9085D4A92793C
:103C100061F300025B498A715B49095C0909594AF1
:103C2000527961F3410257494A715749095C490980
:103C3000544A527961F3C30252494A715249095CAC
:103C40008909504A527961F382024E494A7170479C
:103C50000F2800DD10204C49095C4A4A127A61F3B2
:103C6000C30248490A724849095C4908454A127A20
:103C700061F3820243490A724349095C8908414A57
:103C8000127A61F341023F490A723F49095CC9084F
:103C90003C4A127A61F300023A490A723A49095CD5
:103CA0000909384AD27961F341023649CA71364965
:103CB000095C4909334AD27961F3C3023149CA71B7
:103CC0003149095C89092F4AD27961F382022D4971
:103CD000CA7170470F2800DD10202B49095C294A62
:103CE000927A61F3C30227498A722749095C49081D
:103CF000244A927A61F3820222498A722249095C3B
:103D00008908204A927A61F341021E498A721E494B
:103D1000095CC9081B4A927A61F3000219498A7248
:103D20001949095C0909174A527A61F34102154998
:103D30004A721549095C4909124A527A61F3C30271
:103D400010494A721049095C89090E4A527A61F396
:103D500082020C494A7270470F2800DD10200A4980
:103D6000095C084A127B61F3C30206490A730649DB
:103D7000095C4908034A127B61F3820201490A7314
:103D8000014903E0E00300203D000020095C8908B0
:103D9000FE4A127B61F34102FC490A73FC49095C4B
:103DA000C908FA4A127B61F30002F8490A73F8491C
:103DB000095C0909F54AD27A61F34102F349CA72F2
:103DC000F349095C4909F14AD27A61F3C302EF4928
:103DD000CA72EF49095C8909EC4AD27A61F382021E
:103DE000EA49CA7270470F2800DD1020E849095CD3
:103DF000E64A527B61F38612E4494A73E449095C5E
:103E00004908E24A527B61F30412E0494A73E049EF
:103E1000095C8908DD4A527B61F34102DB494A7340
:103E2000DB49095CC908D94A527B61F30002D749D2
:103E30004A73D749095C0909D44A527B61F382026B
:103E4000D2494A73D249095C4909D04A527B61F38D
:103E50004512CE494A73CE49095C8909CB4A527B47
:103E600061F3C302C9494A7370470F2800DD10206F
:103E7000C749095CC54A927B61F38612C3498A73BC
:103E8000C349095C4908C14A927B61F30412BF49E6
:103E90008A73BF49095C8908BC4A927B61F341027D
:103EA000BA498A73BA49095CC908B84A927B61F376
:103EB0000002B6498A73B649095C0909B34A927B84
:103EC00061F38202B1498A73B149095C4909AF4A79
:103ED000927B61F34512AD498A73AD49095C89094A
:103EE000AA4A927B61F3C302A8498A73704710B152
:103EF00001281BD10DE0A549497A21F00101491C97
:103F0000A24A51721146C97A21F00101491CD172AD
:103F100018E09E49497A21F001019C4A51721146EC
:103F2000C97A21F00101491CD1720BE09749497A05
:103F300021F00101954A51721146C97A21F001011F
:103F4000D17200BF00BF7047012800DD00208F49FB
:103F5000497B60F3C7118D4A51737047012800DD1A
:103F600000208A49097C60F3C711884A11747047A0
:103F7000012800DD00208549497960F3C711834A93
:103F800051717047012800DD00208049497960F3B4
:103F900000017E4A51717047012800DD00207B49F5
:103FA000C97960F3C711794AD1717047012800DDE2
:103FB00000207649C97960F30001744AD1717047D5
:103FC000012800DD00207149C97860F386116F4A2D
:103FD000D1707047012800DD00206C49C97860F37A
:103FE000C7116A4AD1707047012800DD0020674977
:103FF000C97860F34511654AD1707047012800DD2A
:1040000000206249C97860F30411604AD17070479A
:10401000022800DD0020012802D0022826D112E06B
:104020005A49097921F00401091D584A11711146B4
:10403000C97821F00401091DD1701146C97821F019
:104040000801D17023E05149097921F00401091DCB
:104050004E4A11711146C97821F00401D170114600
:10406000C97821F008010831D17010E04749097979
:1040700021F00401454A11711146C97821F004016B
:10408000D1701146C97821F00801D17000BF00BF7E
:1040900070470CB53FA206CACDE90012052800DD25
:1040A00000201DF80010394A127961F3C302374924
:1040B0000A711DF800104908344A127961F304129C
:1040C00032490A711DF800108908304A127961F3EB
:1040D00045122E490A711DF80010C9082B4A1279A1
:1040E00061F3861229490A711DF800100909274A4F
:1040F000127961F3C71225490A710CBD0CB525A2CE
:1041000006CACDE90012052800DD00201DF80010C8
:104110001E4A927861F341021C498A701DF8001012
:1041200049081A4A127961F3410218490A711DF8C7
:1041300000108908154AD27861F341021349CA7008
:104140001DF80010C908114AD27861F300020F4926
:10415000CA701DF8001009090C4A927861F3000238
:104160000A498A700CBD0CB50CA206CACDE9001232
:10417000062800DD00201DF80010044A927861F343
:10418000820202498A701DF800100BE0E003002053
:104190003D000020000103070F1F0000000103077E
:1041A0000F1F3F004908284A927861F3C30226494D
:1041B0008A701DF800108908234A927861F304126E
:1041C00021498A701DF80010C9081F4A927861F3CE
:1041D00045121D498A701DF8001009091A4A927883
:1041E00061F3861218498A701DF800104909164AB1
:1041F000927861F3C71214498A700CBD08B513A1F7
:1042000009680091032800DD00201DF800100E4A07
:10421000927B61F3C7120C498A731DF8001049089C
:10422000094AD27A61F3C7120749CA721DF8001011
:104230008908054A527A61F3C71203494A7208BDD8
:10424000012800DD00207047E00300200001020487
:1042500008B54FF44060ADF8000003208DF802006F
:1042600010208DF803006946964803F0FFFA4FF4DA
:104270008061944803F0A7FB4FF40061914803F07C
:10428000A2FB08BD08B54FF40060ADF800000320A4
:104290008DF8020010208DF803006946894803F06C
:1042A000E5FA08BD08B54FF40060ADF800004820FD
:1042B0008DF803006946834803F0D8FA08BD10B5AD
:1042C000FFF7E0FF4FF400617E4803F07CFB4FF402
:1042D00080617C4803F077FB0320FCF724F94FF45E
:1042E0000061784803F071FB0320FCF71CF94FF4E0
:1042F0008061744803F069FB10BD10B5FFF7C2FF81
:104300004FF480616F4803F060FB4FF400616D482B
:1043100003F05BFB4FF480616A4803F054FB032019
:10432000FCF701F94FF40061664803F04CFB0320F1
:10433000FCF7F9F810BD10B54FF48061614803F047
:1043400044FBFFF79FFF4FF400615E4803F03DFB25
:104350000320FCF7E8F84FF480615A4803F033FB80
:104360000320FCF7E0F84FF48061564803F02DFB82
:1043700010BD10B54FF48061524803F026FBFFF7E3
:1043800081FF4FF400614F4803F01DFB0320FCF751
:10439000CAF84FF480614B4803F015FB0320FCF78B
:1043A000C2F84FF48061474803F00FFB10BD10B511
:1043B0000024FFF777FF4FF40061424803F003FB4E
:1043C0000320FCF7B0F84FF480613E4803F0FBFA9D
:1043D0000320FCF7A8F807E0601CC4B2FA2C03DD48
:1043E000FFF78BFF012010BD4FF40061354803F04B
:1043F000D0FA0028F0D14FF48061324803F0E5FA9A
:104400000020F0E770B504460025FFF73BFF4FF4AE
:1044100080612C4803F0D9FA00BF22E004F080004C
:10442000002805DD4FF40061264803F0CCFA04E0D3
:104430004FF40061234803F0C8FA6006040E4FF4FD
:104440008061204803F0BFFA0320FCF76CF84FF4BA
:1044500080611C4803F0B9FA0320FCF764F8681C7B
:10446000C5B2082DDADB70BD70B505460026002404
:10447000FFF718FF00BF1BE04FF48061114803F005
:10448000A4FA0320FCF74FF84FF480610D4803F0C5
:104490009AFA6006040E4FF400610A4803F079FAB4
:1044A00008B1601CC4B20320FCF73DF8701CC6B212
:1044B000082EE1DB15B9FFF75CFF01E0FFF73BFFDA
:1044C000204670BD000C014008B50620ADF8000084
:1044D00003208DF8020010208DF80300694604487F
:1044E00003F0C4F90220024948610420486108BD74
:1044F0000010014000E0401E0028FCD1704708B5C4
:10450000F1480088F14909880843ADF8000003200C
:104510008DF8020010208DF803006946EC48006811
:1045200003F0A4F908BD08B5E7480088ADF800001D
:1045300003208DF8020010208DF803006946E4483E
:10454000006803F093F908BD08B5DF480088ADF8AE
:10455000000048208DF803006946DD48006803F03C
:1045600085F908BD70B505460026FFF7DCFF8024FD
:1045700023E004EA050030B1D3480188D44800683C
:1045800003F021FA05E0D0480188D148006803F023
:104590001CFACE480188CE48006803F014FA0120C6
:1045A000FFF7A8FFC9480188C948006803F00DFA61
:1045B000204604EBD071C1F34704002CD9DCC3487A
:1045C0000188C348006803F0FEF9FFF7BDFFBE484D
:1045D0000188BF48006803F0DCF90646FFF7A3FF37
:1045E000BA480188BA48006803F0EFF9304670BD58
:1045F00070B505460026FFF7A7FFB3480188B44809
:10460000006803F0E0F9802418E0B0480188B04861
:10461000006803F0D8F9AC480188AD48006803F0A1
:10462000B8F900B12643A9480188A948006803F0F9
:10463000CCF9204604EBD071C1F34704002CE4DC34
:10464000FFF771FF012D06D19F480188A04800683F
:1046500003F0BBF905E09C4801889D48006803F021
:10466000B2F99A4801889A48006803F0ACF9012031
:10467000FFF740FF954801889548006803F0A5F9C9
:104680000120FFF737FF904801889148006803F048
:104690009AF9304670BD10B58B4801888C48006887
:1046A00003F091F9894801888948006803F08DF981
:1046B0000120FFF71FFF854801888548006803F047
:1046C00082F90120FFF716FF7F48018880480068C3
:1046D00003F07BF90120FFF70DFF7C4801887C483F
:1046E000006803F072F90120FFF704FF77480188A2
:1046F0007748006803F067F90120FFF7FBFE724876
:1047000001887348006803F05EF90120FFF7F2FEAC
:104710006E4801886E48006803F057F910BD2DE916
:10472000F04705460E46174698460024A146B8F1C4
:10473000010F03D0B8F1020F14D109E065486449B4
:10474000086040206149088080205F4908800AE0B5
:1047500061485F490860C0145C49088040005A49BC
:10476000088000E000BF00BFFFF7C9FEFFF793FF1E
:1047700017B1012F0CD105E00320FFF7F3FE204411
:10478000C4B206E00520FFF7EDFE2044C4B200E00D
:1047900000BF00BFFFF7D8FE0EE00220FBF7DEFEF1
:1047A00009F1010000F0FF09B9F1820F04DD4FF0BB
:1047B0000009601CC4B207E043480188444800680F
:1047C00003F0E7F80028E8D100BFFFF7ACFE0120B6
:1047D000FFF70EFF28700120FFF70AFF6870002026
:1047E000FFF706FF30702046BDE8F08770B504463D
:1047F0003A4E6178227801EB0221881907F0CEFD4C
:1048000005463749284607F097FC0546284670BDFF
:104810002DE9F0410446334D04276178227801EBFD
:10482000022107FB015007F0B9FD06462C4930462E
:1048300007F082FC06462A49304607F0DBFE00D22C
:10484000274E3046BDE8F08110B50446012C02D059
:10485000022C37D11BE0234600222349881FFFF793
:104860005EFF2148801FFFF7C1FF1F49183988608C
:10487000234601221831A1F10800FFF750FF1A4822
:104880000838FFF7C5FF1849183908601AE02346B1
:1048900000221549881EFFF742FF1348801EFFF7CC
:1048A000A5FF11491839C860234601221831081F95
:1048B000FFF735FF0C48001FFFF7AAFF0A49183918
:1048C000486000BF00BF10BD56000020540000200B
:1048D00050000020001001400008014060F0FFFF80
:1048E0000000C84270FEFFFF1804002008B5332006
:1048F000ADF8000048208DF803006946354802F005
:10490000B5FF0820ADF8000048208DF80300694687
:10491000314802F0ABFF08BD10B5FFF7E7FF40F2EA
:104920001F311320FBF777FF10BD1CB5002000904E
:1049300001900121274803F02CF88DF80000022196
:10494000244803F026F88DF801001021214803F0D7
:1049500020F88DF8020020211E4803F01AF88DF887
:10496000030008211C4803F014F88DF804009DF89A
:1049700000009DF8011040EA41009DF8021040EA55
:1049800081009DF8031040EAC1009DF8041040EA40
:104990000110C0B21CBD00B58DB01048807901284F
:1049A00015D10E49487902F034F80E220C496846B8
:1049B00006F0CBFC1E220A49103905A806F0C5FCFA
:1049C00005A80FC8FEF7D7FA0020044988710DB07A
:1049D00000BD000000080140001001405800002008
:1049E000F003002008B51020ADF8000048208DF835
:1049F00003006946014802F039FF08BD001001407C
:104A000010B50020FEF7B8FB0020FEF7BFFB00202A
:104A1000FEF7C6FB0020FEF70AFB0020FEF755FB61
:104A20000020FEF796FB0A20FEF7A6FC0C20FEF7FE
:104A3000E5FC0120FEF7BEFBFA49097B0809FEF7F9
:104A40001FFDF849097B01F00F00FEF75BFDF549FA
:104A5000497B0809FEF79DFDF249497B01F00F00F3
:104A6000FEF7D9FDEF49897B0809FEF716FEED49EF
:104A7000897B01F00F00FEF752FE10BDF0B58DB03E
:104A800005460C4600260020FEF776FB0020FEF7C8
:104A90007DFB0020FEF784FB0020FEF7C8FA002013
:104AA000FEF713FB0020FEF754FB0120FEF764FC29
:104AB0000D20FEF7A3FC0120FEF77CFB1120FEF782
:104AC000DFFC1120FEF71EFD1120FEF762FD0DBB7D
:104AD000642094FBF0F0C7B23846FEF79CFD6420DA
:104AE00094FBF0F100FB11400A2190FBF1F0C7B2FA
:104AF0003846FEF7D2FD642094FBF0F100FB114034
:104B00000A2190FBF1F201FB1200C7B23846FEF712
:104B100006FE53E000264FE01120FEF77CFD112039
:104B2000FEF7BBFD1120FEF7FAFD0E22BE496846D6
:104B300006F00BFC1E22BC49103905A806F005FC46
:104B400005A80FC8FEF717FA3220FBF707FD64200F
:104B500094FBF0F0C7B23846FEF75DFD642094FB8D
:104B6000F0F100FB11400A2190FBF1F0C7B238468A
:104B7000FEF793FD642094FBF0F100FB11400A2145
:104B800090FBF1F201FB1200C7B23846FEF7C7FDF9
:104B90000E22A549684606F0D8FB1E22A24910390C
:104BA00005A806F0D2FB05A80FC8FEF7E4F914200B
:104BB000FBF7D4FC701CC6B2052EADDB0DB0F0BD0A
:104BC00070B58CB005460C4600260020FEF7D4FADE
:104BD0000020FEF7DBFA0020FEF7E2FA0020FEF7E5
:104BE00026FA0020FEF771FA0020FEF7B2FA0B2039
:104BF000FEF7C2FB0D20FEF701FC0120FEF7DAFAFA
:104C00001120FEF73DFC1120FEF77CFC1120FEF781
:104C1000C0FC1120FEF7FFFC1120FEF73EFD1DB980
:104C2000E0B2FEF77CFD2FE000262BE01120FEF71E
:104C300076FD0E227C49684606F087FB1E227A49E3
:104C4000103904A806F081FB04A80FC8FEF793F9F9
:104C50003220FBF783FCE0B2FEF761FD0E227249C1
:104C6000684606F072FB1E226F49103904A806F050
:104C70006CFB04A80FC8FEF77EF91420FBF76EFC4E
:104C8000701CC6B2052ED1DB0CB070BD70B58CB0F7
:104C900005460C4600260020FEF76EFA0020FEF7BF
:104CA00075FA0020FEF77CFA0020FEF7C0F900201C
:104CB000FEF70BFA0020FEF74CFA0E20FEF75CFB25
:104CC0000D20FEF79BFB0120FEF774FA1120FEF782
:104CD000D7FB1120FEF716FC1120FEF75AFC11201D
:104CE000FEF799FC1120FEF7D8FC1DB9E0B2FEF7E3
:104CF00016FD2FE000262BE01120FEF710FD0E22FE
:104D00004949684606F021FB1E224749103904A88C
:104D100006F01BFB04A80FC8FEF72DF93220FBF7A5
:104D20001DFCE0B2FEF7FBFC0E223F49684606F090
:104D30000CFB1E223C49103904A806F006FB04A80F
:104D40000FC8FEF718F91420FBF708FC701CC6B258
:104D5000052ED1DB0CB070BD70B58CB005460C468D
:104D600000260020FEF708FA0020FEF70FFA0020C8
:104D7000FEF716FA0020FEF75AF90020FEF7A5F913
:104D80000020FEF7E6F90B20FEF7F6FA0B20FEF7FF
:104D900035FB0120FEF70EFA1120FEF771FB112002
:104DA000FEF7B0FB1120FEF7F4FB1120FEF733FCF9
:104DB0001120FEF772FC1DB9E0B2FEF7B0FC2FE047
:104DC00000262BE01120FEF7AAFC0E2216496846A9
:104DD00006F0BBFA1E221449103904A806F0B5FAF1
:104DE00004A80FC8FEF7C7F83220FBF7B7FBE0B204
:104DF000FEF795FC0E220C49684606F0A6FA1E2224
:104E00000949103904A806F0A0FA04A80FC8FEF753
:104E1000B2F81420FBF7A2FB701CC6B2052ED1DB42
:104E20000CB070BDA2010020F003002070B58CB062
:104E300005460C4600260020FEF79EF90020FEF7EE
:104E4000A5F90020FEF7ACF90020FEF7F0F80020ED
:104E5000FEF73BF90020FEF77CF90E20FEF78CFAF6
:104E60000A20FEF7CBFA0120FEF7A4F91120FEF785
:104E700007FB1120FEF746FB1120FEF78AFB1120ED
:104E8000FEF7C9FB1120FEF708FC1DB9E0B2FEF7E2
:104E900046FC2FE000262BE01120FEF740FC0E22FE
:104EA000F849684606F051FA1E22F649103904A85E
:104EB00006F04BFA04A80FC8FEF75DF83220FBF7A6
:104EC0004DFBE0B2FEF72BFC0E22EE49684606F0E1
:104ED0003CFA1E22EB49103904A806F036FA04A861
:104EE0000FC8FEF748F81420FBF738FB701CC6B259
:104EF000052ED1DB0CB070BDF0B58DB005460C466B
:104F000000260020FEF738F90020FEF73FF90020C8
:104F1000FEF746F90020FEF78AF80020FEF7D5F8E4
:104F20000020FEF716F90520FEF726FA0E20FEF700
:104F300065FA0120FEF73EF91120FEF7A1FA1120D3
:104F4000FEF7E0FA1120FEF724FB1120FEF763FBC9
:104F500095BB42F2107094FBF0F100FB11404FF44E
:104F60007A7190FBF1F201FB1200642190FBF1F2E7
:104F700001FB12000A2190FBF1F0C7B23846FEF7A0
:104F80008CFB42F2107094FBF0F100FB11404FF4E7
:104F90007A7190FBF1F201FB1200642190FBF1F2B7
:104FA00001FB12000A2190FBF1F201FB1200C7B2D3
:104FB0003846FEF7B4FB62E0FFE700265DE0112013
:104FC000FEF76BFB1120FEF7AAFB0E22AD496846E7
:104FD00006F0BBF91E22AB49103905A806F0B5F959
:104FE00005A80FC8FDF7C7FF3220FBF7B7FA42F25A
:104FF000107094FBF0F100FB11404FF47A7190FBBC
:10500000F1F201FB1200642190FBF1F201FB1200AE
:105010000A2190FBF1F0C7B23846FEF73EFB42F2A0
:10502000107094FBF0F100FB11404FF47A7190FB8B
:10503000F1F201FB1200642190FBF1F201FB12007E
:105040000A2190FBF1F201FB1200C7B23846FEF7CD
:1050500066FB0E228B49684606F077F91E228949C5
:10506000103905A806F071F905A80FC8FDF783FFF0
:105070001420FBF773FA701CC6B2052E9FDB0DB02F
:10508000F0BD70B58CB005460C4600260020FEF73A
:1050900073F80020FEF77AF80020FEF781F8002070
:1050A000FDF7C5FF0020FEF710F80020FEF751F8CD
:1050B0000F20FEF761F90120FEF7A0F90120FEF7AD
:1050C00079F81120FEF7DCF91120FEF71BFA112008
:1050D000FEF75FFA1120FEF79EFA1120FEF7DDFAC7
:1050E0001DB9E0B2FEF71BFB2FE000262BE01120DC
:1050F000FEF715FB0E226349684606F026F91E22CC
:105100006049103904A806F020F904A80FC8FDF77B
:1051100032FF3220FBF722FAE0B2FEF700FB0E224C
:105120005849684606F011F91E225649103904A85C
:1051300006F00BF904A80FC8FDF71DFF1420FBF7BC
:105140000DFA701CC6B2052ED1DB0CB070BD70B567
:105150008CB005460C4600260020FEF70DF8002016
:10516000FEF714F80020FEF71BF80020FDF75FFFA4
:105170000020FDF7AAFF0020FDF7EBFF0F20FEF750
:10518000FBF80220FEF73AF90120FEF713F8112090
:10519000FEF776F91120FEF7B5F91120FEF7F9F9BF
:1051A0001120FEF738FA1120FEF777FA1DB9E0B2A8
:1051B000FEF7B5FA2FE000262BE01120FEF7AFFA3C
:1051C0000E223049684606F0C0F81E222D491039DB
:1051D00004A806F0BAF804A80FC8FDF7CCFE3220E8
:1051E000FBF7BCF9E0B2FEF79AFA0E2225496846B1
:1051F00006F0ABF81E222349103904A806F0A5F8E2
:1052000004A80FC8FDF7B7FE1420FBF7A7F9701C20
:10521000C6B2052ED1DB0CB070BD70B58CB00546A2
:105220000C4600260020FDF7A7FF0020FDF7AEFF8B
:105230000020FDF7B5FF0020FDF7F9FE0020FDF787
:1052400044FF0020FDF785FF0F20FEF795F80320AF
:10525000FEF7D4F80120FDF7ADFF1120FEF710F99D
:105260001120FEF74FF91120FEF793F91120FEF7F8
:10527000D2F91120FEF711FA35B9E0B2FEF74FFA74
:1052800032E00000F003002000262BE01120FEF7A2
:1052900046FA0E22FB49684606F057F81E22F949E5
:1052A000103904A806F051F804A80FC8FDF763FEF2
:1052B0003220FBF753F9E0B2FEF731FA0E22F14942
:1052C000684606F042F81E22EE49103904A806F09E
:1052D0003CF804A80FC8FDF74EFE1420FBF73EF97A
:1052E000701CC6B2052ED1DB0CB070BD2DE9F043A9
:1052F0008DB006460D46144600270A2D01DB132DFE
:1053000002DD0DB0BDE8F0830020FDF735FF012080
:10531000FDF73CFF0020FDF743FF0020FDF787FE6F
:105320000020FDF7D2FE0020FDF713FF002C04DA69
:1053300001210220FDF740FE03E000210220FDF7DD
:105340003BFEA5F10A000A2816D2DFE800F00506A8
:105350000E0F07081011090A00BF00BF00BF00BFF1
:1053600000BF0120FDF7F5FE06E000BF00BF00BF53
:105370000120FDF7AAFE00BF00BF0A20FDF7FCFFD9
:10538000A5F10A01C8B2FEF739F80120FDF712FFB6
:105390001120FEF775F81120FEF7B4F8EEBBB4F15A
:1053A000000801DB404601E0C8F100004FF47A71CB
:1053B00090FBF1F000F0FF094846FEF7EAF8B4F17F
:1053C000000801DB404601E0C8F100004FF47A71AB
:1053D00090FBF1F201FB1200642190FBF1F000F070
:1053E000FF094846FEF717F9B4F1000801DB404613
:1053F00001E0C8F100004FF47A7190FBF1F201FB7B
:105400001200642190FBF1F201FB12000A2190FBD3
:10541000F1F000F0FF09484600E01EE0FEF73DF91C
:10542000B4F1000801DB404601E0C8F100004FF490
:105430007A7190FBF1F201FB1200642190FBF1F212
:1054400001FB12000A2190FBF1F201FB120000F0B7
:10545000FF094846FEF763F991E000278CE0112030
:10546000FEF797F81120FEF7D6F81120FEF715F990
:105470001120FEF754F90E228249684605F065FFB7
:105480001E228049103905A805F05FFF05A80FC846
:10549000FDF771FD3220FBF761F8B4F1000801DB84
:1054A000404601E0C8F100004FF47A7190FBF1F042
:1054B00000F0FF094846FEF76CF8B4F1000801DB84
:1054C000404601E0C8F100004FF47A7190FBF1F220
:1054D00001FB1200642190FBF1F000F0FF09484647
:1054E000FEF799F8B4F1000801DB404601E0C8F18D
:1054F00000004FF47A7190FBF1F201FB120064217D
:1055000090FBF1F201FB12000A2190FBF1F000F098
:10551000FF094846FEF7C1F8B4F1000801DB404638
:1055200001E0C8F100004FF47A7190FBF1F201FB49
:105530001200642190FBF1F201FB12000A2190FBA2
:10554000F1F201FB120000F0FF094846FEF7E7F810
:105550000E224C49684605F0F8FE1E2249491039D2
:1055600005A805F0F2FE05A80FC8FDF704FD1420FC
:10557000FAF7F4FF781CC7B2052FFFF670AF00BF33
:10558000BFE62DE9F0438DB006460D4614460027D0
:10559000142D01DB1D2D02DD0DB0BDE8F0830020D0
:1055A000FDF7EAFD0020FDF7F1FD0120FDF7F8FD14
:1055B0000020FDF73CFD0020FDF787FD0020FDF7F2
:1055C000C8FD002C04DA01210220FDF7F5FC03E000
:1055D00000210220FDF7F0FC0C20FDF7CDFEA5F127
:1055E0001401C8B2FDF70AFF0120FDF7E3FD112009
:1055F000FDF746FF002E7CD1B4F1000801DB4046E8
:1056000001E0C8F1000042F2107190FBF1F000F0EF
:10561000FF094846FDF776FFB4F1000801DB40467C
:1056200001E0C8F1000042F2107190FBF1F201FBC1
:1056300012004FF47A7190FBF1F000F0FF09484638
:10564000FDF7A7FFB4F1000801DB404601E0C8F117
:10565000000042F2107190FBF1F201FB12004FF4D6
:105660007A7190FBF1F201FB1200642190FBF1F0E2
:1056700000F0FF094846FDF7CEFFB4F1000803DB58
:10568000404603E0F0030020C8F1000042F2107130
:1056900090FBF1F201FB12004FF47A7190FBF1F2F2
:1056A00001FB1200642190FBF1F201FB12000A21C0
:1056B00090FBF1F000F0FF094846FDF7EEFFB4F172
:1056C000000801DB404601E0C8F1000042F2107121
:1056D00090FBF1F201FB12004FF47A7190FBF1F2B2
:1056E00001FB1200642190FBF1F201FB12000A2180
:1056F00000E009E090FBF1F201FB120000F0FF096D
:105700004846FEF70CF8BCE00027B7E01120FDF793
:10571000F9FE1120FDF73DFF1120FDF77CFF112060
:10572000FDF7BBFF1120FDF7FAFF0E22FD49684689
:1057300005F00BFE1E22FB49103905A805F005FEF9
:1057400005A80FC8FDF717FC3220FAF707FFB4F1E0
:10575000000801DB404601E0C8F1000042F2107190
:1057600090FBF1F000F0FF094846FDF7CBFEB4F1E5
:10577000000801DB404601E0C8F1000042F2107170
:1057800090FBF1F201FB12004FF47A7190FBF1F003
:1057900000F0FF094846FDF7FCFEB4F1000801DB0C
:1057A000404601E0C8F1000042F2107190FBF1F2B6
:1057B00001FB12004FF47A7190FBF1F201FB120031
:1057C000642190FBF1F000F0FF094846FDF723FF4C
:1057D000B4F1000801DB404601E0C8F1000042F2EC
:1057E000107190FBF1F201FB12004FF47A7190FB03
:1057F000F1F201FB1200642190FBF1F201FB1200B7
:105800000A2190FBF1F000F0FF094846FDF745FF43
:10581000B4F1000901DB484601E0C9F1000042F2A1
:10582000107190FBF1F201FB12004FF47A7190FBC2
:10583000F1F201FB1200642190FBF1F201FB120076
:105840000A2190FBF1F201FB120000F0FF08404634
:10585000FDF765FF0E22B349684605F076FD1E226E
:10586000B049103905A805F070FD05A80FC8FDF76F
:1058700082FB1420FAF772FE781CC7B2052FFFF6E0
:1058800045AF00BF88E6F0B58DB006460C46002552
:105890001E2E01DB232E01DD0DB0F0BD0020FDF733
:1058A0006BFC0020FDF772FC0020FDF779FC002066
:1058B000FDF7BDFB0020FDF708FC0020FDF749FCCB
:1058C0001120FDF759FD1120FDF798FD0020FDF78F
:1058D00071FC1120FDF7D4FD1120FDF713FE02200D
:1058E000FDF757FE0020FDF796FEA6F11E000628E4
:1058F0004AD2DFE800F0034A8DD0FEFD002541E0EA
:105900001120FDF7CAFE1120FDF709FF0E2285497F
:10591000684605F01AFD1E228249103905A805F0D7
:1059200014FD05A80FC8FDF726FB3220FAF716FE76
:105930002068A0F5FA600A2190FBF1F0C7B2384662
:10594000FDF7ABFE2068A0F5FA600A2190FBF1F2AA
:1059500001FB1200C7B23846FDF7E1FE0E22714985
:10596000684605F0F2FC1E226E49103905A805F0C4
:10597000ECFC05A80FC8FDF7FEFA1420FAF7EEFDBF
:10598000681CC5B2052DBBDB54E100253DE01120AC
:10599000FEF7ADFA1120FEF7DFF90E2261496846E5
:1059A00005F0D3FC1E225F49103905A805F0CDFC97
:1059B00005A80FC8FDF7DFFA3220FAF7CFFD2079EE
:1059C0000A2190FBF1F0C7B23846FEF790FA207931
:1059D0000A2190FBF1F201FB1200C7B23846FEF734
:1059E000BBF90E224F49684605F0AFFC1E224D4917
:1059F000103905A805F0A9FC05A80FC8FDF7BBFAEA
:105A00001420FAF7ABFD681CC5B2052DBFDB11E110
:105A100000253DE01120FEF7E6F91120FEF725FAFA
:105A20000E224049684605F090FC1E223D4910397F
:105A300005A805F08AFC05A80FC8FDF79CFA3220DE
:105A4000FAF78CFD60790A2190FBF1F0C7B2384675
:105A5000FEF7C9F960790A2190FBF1F201FB12000F
:105A6000C7B23846FEF701FA0E222E49684605F005
:105A70006CFC1E222B49103905A805F066FC05A810
:105A80000FC8FDF778FA1420FAF768FD681CC5B254
:105A9000052DBFDBCEE0002540E01120FDF781FEA3
:105AA0001120FDF7C0FE0E221E49684605F04DFC90
:105AB0001E221C49103905A805F047FC05A80FC88F
:105AC000FDF759FA3220FAF749FDA0790A2190FB37
:105AD000F1F0C7B23846FDF764FEA0790A2190FBC9
